{
  "_format": "hh-sol-artifact-1",
  "contractName": "StakeStar",
  "sourceName": "contracts/StakeStar.sol",
  "abi": [
    {
      "anonymous": false,
      "inputs": [
        {
          "indexed": false,
          "internalType": "uint8",
          "name": "version",
          "type": "uint8"
        }
      ],
      "name": "Initialized",
      "type": "event"
    },
    {
      "anonymous": false,
      "inputs": [
        {
          "indexed": true,
          "internalType": "bytes32",
          "name": "role",
          "type": "bytes32"
        },
        {
          "indexed": true,
          "internalType": "bytes32",
          "name": "previousAdminRole",
          "type": "bytes32"
        },
        {
          "indexed": true,
          "internalType": "bytes32",
          "name": "newAdminRole",
          "type": "bytes32"
        }
      ],
      "name": "RoleAdminChanged",
      "type": "event"
    },
    {
      "anonymous": false,
      "inputs": [
        {
          "indexed": true,
          "internalType": "bytes32",
          "name": "role",
          "type": "bytes32"
        },
        {
          "indexed": true,
          "internalType": "address",
          "name": "account",
          "type": "address"
        },
        {
          "indexed": true,
          "internalType": "address",
          "name": "sender",
          "type": "address"
        }
      ],
      "name": "RoleGranted",
      "type": "event"
    },
    {
      "anonymous": false,
      "inputs": [
        {
          "indexed": true,
          "internalType": "bytes32",
          "name": "role",
          "type": "bytes32"
        },
        {
          "indexed": true,
          "internalType": "address",
          "name": "account",
          "type": "address"
        },
        {
          "indexed": true,
          "internalType": "address",
          "name": "sender",
          "type": "address"
        }
      ],
      "name": "RoleRevoked",
      "type": "event"
    },
    {
      "anonymous": false,
      "inputs": [
        {
          "indexed": true,
          "internalType": "address",
          "name": "staker",
          "type": "address"
        },
        {
          "indexed": false,
          "internalType": "uint256",
          "name": "amount",
          "type": "uint256"
        }
      ],
      "name": "Stake",
      "type": "event"
    },
    {
      "inputs": [],
      "name": "DEFAULT_ADMIN_ROLE",
      "outputs": [
        {
          "internalType": "bytes32",
          "name": "",
          "type": "bytes32"
        }
      ],
      "stateMutability": "view",
      "type": "function"
    },
    {
      "inputs": [
        {
          "internalType": "uint256",
          "name": "amount",
          "type": "uint256"
        }
      ],
      "name": "applyPenalties",
      "outputs": [],
      "stateMutability": "nonpayable",
      "type": "function"
    },
    {
      "inputs": [],
      "name": "applyRewards",
      "outputs": [],
      "stateMutability": "nonpayable",
      "type": "function"
    },
    {
      "inputs": [],
      "name": "claim",
      "outputs": [],
      "stateMutability": "nonpayable",
      "type": "function"
    },
    {
      "inputs": [
        {
          "components": [
            {
              "internalType": "bytes",
              "name": "publicKey",
              "type": "bytes"
            },
            {
              "internalType": "bytes",
              "name": "withdrawalCredentials",
              "type": "bytes"
            },
            {
              "internalType": "bytes",
              "name": "signature",
              "type": "bytes"
            },
            {
              "internalType": "bytes32",
              "name": "depositDataRoot",
              "type": "bytes32"
            },
            {
              "internalType": "uint32[]",
              "name": "operatorIds",
              "type": "uint32[]"
            },
            {
              "internalType": "bytes[]",
              "name": "sharesPublicKeys",
              "type": "bytes[]"
            },
            {
              "internalType": "bytes[]",
              "name": "sharesEncrypted",
              "type": "bytes[]"
            }
          ],
          "internalType": "struct StakeStar.ValidatorParams",
          "name": "validatorParams",
          "type": "tuple"
        },
        {
          "internalType": "uint256",
          "name": "ssvDepositAmount",
          "type": "uint256"
        }
      ],
      "name": "createValidator",
      "outputs": [],
      "stateMutability": "nonpayable",
      "type": "function"
    },
    {
      "inputs": [],
      "name": "depositContract",
      "outputs": [
        {
          "internalType": "contract IDepositContract",
          "name": "",
          "type": "address"
        }
      ],
      "stateMutability": "view",
      "type": "function"
    },
    {
      "inputs": [],
      "name": "destroyValidator",
      "outputs": [],
      "stateMutability": "nonpayable",
      "type": "function"
    },
    {
      "inputs": [
        {
          "internalType": "bytes32",
          "name": "role",
          "type": "bytes32"
        }
      ],
      "name": "getRoleAdmin",
      "outputs": [
        {
          "internalType": "bytes32",
          "name": "",
          "type": "bytes32"
        }
      ],
      "stateMutability": "view",
      "type": "function"
    },
    {
      "inputs": [
        {
          "internalType": "bytes32",
          "name": "role",
          "type": "bytes32"
        },
        {
          "internalType": "address",
          "name": "account",
          "type": "address"
        }
      ],
      "name": "grantRole",
      "outputs": [],
      "stateMutability": "nonpayable",
      "type": "function"
    },
    {
      "inputs": [
        {
          "internalType": "bytes32",
          "name": "role",
          "type": "bytes32"
        },
        {
          "internalType": "address",
          "name": "account",
          "type": "address"
        }
      ],
      "name": "hasRole",
      "outputs": [
        {
          "internalType": "bool",
          "name": "",
          "type": "bool"
        }
      ],
      "stateMutability": "view",
      "type": "function"
    },
    {
      "inputs": [
        {
          "internalType": "address",
          "name": "depositContractAddress",
          "type": "address"
        },
        {
          "internalType": "address",
          "name": "ssvNetworkAddress",
          "type": "address"
        },
        {
          "internalType": "address",
          "name": "ssvTokenAddress",
          "type": "address"
        },
        {
          "internalType": "address",
          "name": "stakeStarRegistryAddress",
          "type": "address"
        }
      ],
      "name": "initialize",
      "outputs": [],
      "stateMutability": "nonpayable",
      "type": "function"
    },
    {
      "inputs": [
        {
          "internalType": "bytes32",
          "name": "role",
          "type": "bytes32"
        },
        {
          "internalType": "address",
          "name": "account",
          "type": "address"
        }
      ],
      "name": "renounceRole",
      "outputs": [],
      "stateMutability": "nonpayable",
      "type": "function"
    },
    {
      "inputs": [
        {
          "internalType": "bytes32",
          "name": "role",
          "type": "bytes32"
        },
        {
          "internalType": "address",
          "name": "account",
          "type": "address"
        }
      ],
      "name": "revokeRole",
      "outputs": [],
      "stateMutability": "nonpayable",
      "type": "function"
    },
    {
      "inputs": [],
      "name": "ssvNetwork",
      "outputs": [
        {
          "internalType": "contract ISSVNetwork",
          "name": "",
          "type": "address"
        }
      ],
      "stateMutability": "view",
      "type": "function"
    },
    {
      "inputs": [],
      "name": "ssvToken",
      "outputs": [
        {
          "internalType": "contract IERC20",
          "name": "",
          "type": "address"
        }
      ],
      "stateMutability": "view",
      "type": "function"
    },
    {
      "inputs": [],
      "name": "stake",
      "outputs": [],
      "stateMutability": "payable",
      "type": "function"
    },
    {
      "inputs": [],
      "name": "stakeStarReceipt",
      "outputs": [
        {
          "internalType": "contract StakeStarReceipt",
          "name": "",
          "type": "address"
        }
      ],
      "stateMutability": "view",
      "type": "function"
    },
    {
      "inputs": [],
      "name": "stakeStarRegistry",
      "outputs": [
        {
          "internalType": "contract StakeStarRegistry",
          "name": "",
          "type": "address"
        }
      ],
      "stateMutability": "view",
      "type": "function"
    },
    {
      "inputs": [],
      "name": "stakeStarRewards",
      "outputs": [
        {
          "internalType": "contract StakeStarRewards",
          "name": "",
          "type": "address"
        }
      ],
      "stateMutability": "view",
      "type": "function"
    },
    {
      "inputs": [
        {
          "internalType": "bytes4",
          "name": "interfaceId",
          "type": "bytes4"
        }
      ],
      "name": "supportsInterface",
      "outputs": [
        {
          "internalType": "bool",
          "name": "",
          "type": "bool"
        }
      ],
      "stateMutability": "view",
      "type": "function"
    },
    {
      "inputs": [
        {
          "internalType": "uint256",
          "name": "amount",
          "type": "uint256"
        }
      ],
      "name": "unstake",
      "outputs": [],
      "stateMutability": "nonpayable",
      "type": "function"
    },
    {
      "inputs": [],
      "name": "validatorCreationAvailability",
      "outputs": [
        {
          "internalType": "bool",
          "name": "",
          "type": "bool"
        }
      ],
      "stateMutability": "view",
      "type": "function"
    },
    {
      "inputs": [],
      "name": "validatorDestructionAvailability",
      "outputs": [
        {
          "internalType": "bool",
          "name": "",
          "type": "bool"
        }
      ],
      "stateMutability": "view",
      "type": "function"
    },
    {
      "stateMutability": "payable",
      "type": "receive"
    }
  ],
  "bytecode": "0x608060405234801561001057600080fd5b50613af3806100206000396000f3fe608060405260043610620001a35760003560e01c80634e71d92d11620000e7578063a99a9e781162000089578063e932ebc41162000060578063e932ebc41462000483578063e94ad65b14620004a4578063f8c8765e14620004c657600080fd5b8063a99a9e78146200036b578063bf2be05e1462000446578063d547741f146200045e57600080fd5b806391d1485411620000be57806391d1485414620003c0578063a217fddf146200040a578063a5b04cd9146200042157600080fd5b80634e71d92d146200036b57806371ccda4e14620003835780638c25b4eb146200039b57600080fd5b8063248a9ca311620001515780632f2ff15d11620001285780632f2ff15d146200031757806336568abe146200033c5780633a4b66f1146200036157600080fd5b8063248a9ca3146200028b57806328c56d5a14620002ce5780632e17de7814620002f057600080fd5b80630f20f8e911620001865780630f20f8e9146200022557806310d04858146200024757806315a8ed96146200026957600080fd5b806301ffc9a714620001b05780630da382a114620001ea57600080fd5b36620001ab57005b600080fd5b348015620001bd57600080fd5b50620001d5620001cf36600462001235565b620004eb565b60405190151581526020015b60405180910390f35b348015620001f757600080fd5b506097546200020c906001600160a01b031681565b6040516001600160a01b039091168152602001620001e1565b3480156200023257600080fd5b506099546200020c906001600160a01b031681565b3480156200025457600080fd5b50609b546200020c906001600160a01b031681565b3480156200027657600080fd5b506098546200020c906001600160a01b031681565b3480156200029857600080fd5b50620002bf620002aa36600462001279565b60009081526065602052604090206001015490565b604051908152602001620001e1565b348015620002db57600080fd5b50609c546200020c906001600160a01b031681565b348015620002fd57600080fd5b50620003156200030f36600462001279565b62000585565b005b3480156200032457600080fd5b506200031562000336366004620012b0565b620005d2565b3480156200034957600080fd5b50620003156200035b366004620012b0565b62000600565b6200031562000690565b3480156200037857600080fd5b506200031562000585565b3480156200039057600080fd5b50620001d562000797565b348015620003a857600080fd5b5062000315620003ba36600462001279565b620007e3565b348015620003cd57600080fd5b50620001d5620003df366004620012b0565b60009182526065602090815260408084206001600160a01b0393909316845291905290205460ff1690565b3480156200041757600080fd5b50620002bf600081565b3480156200042e57600080fd5b506200031562000440366004620012df565b6200085b565b3480156200045357600080fd5b506200031562000ab6565b3480156200046b57600080fd5b50620003156200047d366004620012b0565b62000be6565b3480156200049057600080fd5b506801bc16d674ec800000471015620001d5565b348015620004b157600080fd5b50609a546200020c906001600160a01b031681565b348015620004d357600080fd5b5062000315620004e53660046200132c565b62000c0f565b60007fffffffff0000000000000000000000000000000000000000000000000000000082167f7965db0b0000000000000000000000000000000000000000000000000000000014806200057f57507f01ffc9a7000000000000000000000000000000000000000000000000000000007fffffffff000000000000000000000000000000000000000000000000000000008316145b92915050565b60405162461bcd60e51b815260206004820152600f60248201527f6e6f7420696d706c656d656e746564000000000000000000000000000000000060448201526064015b60405180910390fd5b600082815260656020526040902060010154620005ef8162000e47565b620005fb838362000e56565b505050565b6001600160a01b0381163314620006805760405162461bcd60e51b815260206004820152602f60248201527f416363657373436f6e74726f6c3a2063616e206f6e6c792072656e6f756e636560448201527f20726f6c657320666f722073656c6600000000000000000000000000000000006064820152608401620005c9565b6200068c828262000efa565b5050565b60003411620006e25760405162461bcd60e51b815260206004820152601960248201527f696e73756666696369656e74207374616b6520616d6f756e74000000000000006044820152606401620005c9565b6098546040517f40c10f190000000000000000000000000000000000000000000000000000000081523360048201523460248201526001600160a01b03909116906340c10f1990604401600060405180830381600087803b1580156200074757600080fd5b505af11580156200075c573d6000803e3d6000fd5b50506040513481523392507febedb8b3c678666e7f36970bc8f57abf6d8fa2e828c0da91ea5b75bf68ed101a915060200160405180910390a2565b60405162461bcd60e51b815260206004820152600f60248201527f6e6f7420696d706c656d656e74656400000000000000000000000000000000006044820152600090606401620005c9565b6000620007f08162000e47565b60985460405163c467413d60e01b815260048101849052600060248201526001600160a01b039091169063c467413d90604401600060405180830381600087803b1580156200083e57600080fd5b505af115801562000853573d6000803e3d6000fd5b505050505050565b6000620008688162000e47565b6801bc16d674ec800000471015620008c35760405162461bcd60e51b815260206004820181905260248201527f76616c696461746f72206372656174696f6e206e6f7420617661696c61626c656044820152606401620005c9565b609a546001600160a01b031663228951186801bc16d674ec800000620008ea868062001389565b620008f9602089018962001389565b6200090860408b018b62001389565b8b606001356040518963ffffffff1660e01b815260040162000931979695949392919062001403565b6000604051808303818588803b1580156200094b57600080fd5b505af115801562000960573d6000803e3d6000fd5b5050609c54609b546040517f095ea7b30000000000000000000000000000000000000000000000000000000081526001600160a01b039182166004820152602481018890529116935063095ea7b392506044019050602060405180830381600087803b158015620009d057600080fd5b505af1158015620009e5573d6000803e3d6000fd5b505050506040513d601f19601f8201168201806040525081019062000a0b91906200145a565b50609b546001600160a01b031663e40cb19d62000a29858062001389565b62000a3860808801886200147e565b62000a4760a08a018a6200147e565b62000a5660c08c018c6200147e565b8b6040518a63ffffffff1660e01b815260040162000a7d9998979695949392919062001563565b600060405180830381600087803b15801562000a9857600080fd5b505af115801562000aad573d6000803e3d6000fd5b50505050505050565b6099546001600160a01b0316318062000b125760405162461bcd60e51b815260206004820152600a60248201527f6e6f2072657761726473000000000000000000000000000000000000000000006044820152606401620005c9565b609960009054906101000a90046001600160a01b03166001600160a01b031663329eb8396040518163ffffffff1660e01b8152600401600060405180830381600087803b15801562000b6357600080fd5b505af115801562000b78573d6000803e3d6000fd5b505060985460405163c467413d60e01b815260048101859052600160248201526001600160a01b03909116925063c467413d9150604401600060405180830381600087803b15801562000bca57600080fd5b505af115801562000bdf573d6000803e3d6000fd5b5050505050565b60008281526065602052604090206001015462000c038162000e47565b620005fb838362000efa565b600054610100900460ff161580801562000c305750600054600160ff909116105b8062000c4c5750303b15801562000c4c575060005460ff166001145b62000cc05760405162461bcd60e51b815260206004820152602e60248201527f496e697469616c697a61626c653a20636f6e747261637420697320616c72656160448201527f647920696e697469616c697a65640000000000000000000000000000000000006064820152608401620005c9565b6000805460ff19166001179055801562000ce4576000805461ff0019166101001790555b609a80546001600160a01b0380881673ffffffffffffffffffffffffffffffffffffffff1992831617909255609b80548784169083168117909155609c805483169091179055609780549285169290911691909117905560405162000d499062001219565b604051809103906000f08015801562000d66573d6000803e3d6000fd5b506098805473ffffffffffffffffffffffffffffffffffffffff19166001600160a01b039290921691909117905560405162000da29062001227565b604051809103906000f08015801562000dbf573d6000803e3d6000fd5b506099805473ffffffffffffffffffffffffffffffffffffffff19166001600160a01b039290921691909117905562000dfa60003362000f7e565b801562000bdf576000805461ff0019169055604051600181527f7f26b83ff96e1f2b6a682f133852f6798a09c465da95921460cefb38474024989060200160405180910390a15050505050565b62000e53813362000f8a565b50565b60008281526065602090815260408083206001600160a01b038516845290915290205460ff166200068c5760008281526065602090815260408083206001600160a01b03851684529091529020805460ff1916600117905562000eb63390565b6001600160a01b0316816001600160a01b0316837f2f8788117e7eff1d82e926ec794901d17c78024a50270940304540a733656f0d60405160405180910390a45050565b60008281526065602090815260408083206001600160a01b038516845290915290205460ff16156200068c5760008281526065602090815260408083206001600160a01b0385168085529252808320805460ff1916905551339285917ff6391f5c32d9c69d2a47ea670b442974b53935d1edc7fd64eb21e047a839171b9190a45050565b6200068c828262000e56565b60008281526065602090815260408083206001600160a01b038516845290915290205460ff166200068c5762000fcb816001600160a01b0316601462001013565b62000fd883602062001013565b60405160200162000feb9291906200163c565b60408051601f198184030181529082905262461bcd60e51b8252620005c991600401620016c1565b60606000620010248360026200170c565b620010319060026200172e565b67ffffffffffffffff8111156200104c576200104c62001749565b6040519080825280601f01601f19166020018201604052801562001077576020820181803683370190505b5090507f300000000000000000000000000000000000000000000000000000000000000081600081518110620010b157620010b16200175f565b60200101906001600160f81b031916908160001a9053507f780000000000000000000000000000000000000000000000000000000000000081600181518110620010ff57620010ff6200175f565b60200101906001600160f81b031916908160001a9053506000620011258460026200170c565b620011329060016200172e565b90505b6001811115620011c1577f303132333435363738396162636465660000000000000000000000000000000085600f16601081106200117757620011776200175f565b1a60f81b8282815181106200119057620011906200175f565b60200101906001600160f81b031916908160001a90535060049490941c93620011b98162001775565b905062001135565b508315620012125760405162461bcd60e51b815260206004820181905260248201527f537472696e67733a20686578206c656e67746820696e73756666696369656e746044820152606401620005c9565b9392505050565b611903806200179083390190565b610a2b806200309383390190565b6000602082840312156200124857600080fd5b81357fffffffff00000000000000000000000000000000000000000000000000000000811681146200121257600080fd5b6000602082840312156200128c57600080fd5b5035919050565b80356001600160a01b0381168114620012ab57600080fd5b919050565b60008060408385031215620012c457600080fd5b82359150620012d66020840162001293565b90509250929050565b60008060408385031215620012f357600080fd5b823567ffffffffffffffff8111156200130b57600080fd5b830160e081860312156200131e57600080fd5b946020939093013593505050565b600080600080608085870312156200134357600080fd5b6200134e8562001293565b93506200135e6020860162001293565b92506200136e6040860162001293565b91506200137e6060860162001293565b905092959194509250565b6000808335601e19843603018112620013a157600080fd5b83018035915067ffffffffffffffff821115620013bd57600080fd5b602001915036819003821315620013d357600080fd5b9250929050565b81835281816020850137506000828201602090810191909152601f909101601f19169091010190565b6080815260006200141960808301898b620013da565b82810360208401526200142e81888a620013da565b9050828103604084015262001445818688620013da565b91505082606083015298975050505050505050565b6000602082840312156200146d57600080fd5b815180151581146200121257600080fd5b6000808335601e198436030181126200149657600080fd5b83018035915067ffffffffffffffff821115620014b257600080fd5b6020019150600581901b3603821315620013d357600080fd5b81835260006020808501808196508560051b810191508460005b87811015620015565782840389528135601e198836030181126200150857600080fd5b8701803567ffffffffffffffff8111156200152257600080fd5b8036038913156200153257600080fd5b620015418682898501620013da565b9a87019a9550505090840190600101620014e5565b5091979650505050505050565b60a0815260006200157960a083018b8d620013da565b8281036020848101919091528982528a9181016000805b8c811015620015c257843563ffffffff8116808214620015ae578384fd5b845250938301939183019160010162001590565b50508481036040860152620015d9818a8c620014cb565b925050508281036060840152620015f2818688620014cb565b9150508260808301529a9950505050505050505050565b60005b83811015620016265781810151838201526020016200160c565b8381111562001636576000848401525b50505050565b7f416363657373436f6e74726f6c3a206163636f756e74200000000000000000008152600083516200167681601785016020880162001609565b7f206973206d697373696e6720726f6c65200000000000000000000000000000006017918401918201528351620016b581602884016020880162001609565b01602801949350505050565b6020815260008251806020840152620016e281604085016020870162001609565b601f01601f19169190910160400192915050565b634e487b7160e01b600052601160045260246000fd5b6000816000190483118215151615620017295762001729620016f6565b500290565b60008219821115620017445762001744620016f6565b500190565b634e487b7160e01b600052604160045260246000fd5b634e487b7160e01b600052603260045260246000fd5b600081620017875762001787620016f6565b50600019019056fe60806040523480156200001157600080fd5b506040518060400160405280601081526020016f14dd185ad954dd185c949958d95a5c1d60821b8152506040518060400160405280600381526020016229a9a960e91b81525081600390805190602001906200006f9291906200017c565b508051620000859060049060208401906200017c565b5062000092915050601290565b6200009f90600a62000335565b600655620000af600033620000b5565b6200038a565b620000c18282620000c5565b5050565b620000d182826200014f565b620000c15760008281526005602090815260408083206001600160a01b03851684529091529020805460ff191660011790556200010b3390565b6001600160a01b0316816001600160a01b0316837f2f8788117e7eff1d82e926ec794901d17c78024a50270940304540a733656f0d60405160405180910390a45050565b60008281526005602090815260408083206001600160a01b038516845290915290205460ff165b92915050565b8280546200018a906200034d565b90600052602060002090601f016020900481019282620001ae5760008555620001f9565b82601f10620001c957805160ff1916838001178555620001f9565b82800160010185558215620001f9579182015b82811115620001f9578251825591602001919060010190620001dc565b50620002079291506200020b565b5090565b5b808211156200020757600081556001016200020c565b634e487b7160e01b600052601160045260246000fd5b600181815b80851115620002795781600019048211156200025d576200025d62000222565b808516156200026b57918102915b93841c93908002906200023d565b509250929050565b600082620002925750600162000176565b81620002a15750600062000176565b8160018114620002ba5760028114620002c557620002e5565b600191505062000176565b60ff841115620002d957620002d962000222565b50506001821b62000176565b5060208310610133831016604e8410600b84101617156200030a575081810a62000176565b62000316838362000238565b80600019048211156200032d576200032d62000222565b029392505050565b60006200034660ff84168362000281565b9392505050565b600181811c908216806200036257607f821691505b602082108114156200038457634e487b7160e01b600052602260045260246000fd5b50919050565b611569806200039a6000396000f3fe608060405234801561001057600080fd5b50600436106101825760003560e01c806340c10f19116100d8578063a217fddf1161008c578063c467413d11610066578063c467413d1461032f578063d547741f14610342578063dd62ed3e1461035557600080fd5b8063a217fddf14610301578063a457c2d714610309578063a9059cbb1461031c57600080fd5b806391d14854116100bd57806391d14854146102ad57806395d89b41146102e65780639dc29fac146102ee57600080fd5b806340c10f191461027157806370a082311461028457600080fd5b8063248a9ca31161013a578063313ce56711610114578063313ce5671461023c57806336568abe1461024b578063395093511461025e57600080fd5b8063248a9ca3146101fc5780632c4e722e1461021f5780632f2ff15d1461022757600080fd5b8063095ea7b31161016b578063095ea7b3146101c457806318160ddd146101d757806323b872dd146101e957600080fd5b806301ffc9a71461018757806306fdde03146101af575b600080fd5b61019a6101953660046110d9565b61038e565b60405190151581526020015b60405180910390f35b6101b7610427565b6040516101a69190611147565b61019a6101d2366004611196565b6104b9565b6002545b6040519081526020016101a6565b61019a6101f73660046111c0565b6104d1565b6101db61020a3660046111fc565b60009081526005602052604090206001015490565b6006546101db565b61023a610235366004611215565b6104f5565b005b604051601281526020016101a6565b61023a610259366004611215565b61051f565b61019a61026c366004611196565b6105b0565b61023a61027f366004611196565b6105ef565b6101db610292366004611241565b6001600160a01b031660009081526020819052604090205490565b61019a6102bb366004611215565b60009182526005602090815260408084206001600160a01b0393909316845291905290205460ff1690565b6101b7610646565b61023a6102fc366004611196565b610655565b6101db600081565b61019a610317366004611196565b6106a8565b61019a61032a366004611196565b610752565b61023a61033d36600461125c565b610760565b61023a610350366004611215565b61080a565b6101db610363366004611291565b6001600160a01b03918216600090815260016020908152604080832093909416825291909152205490565b60007fffffffff0000000000000000000000000000000000000000000000000000000082167f7965db0b00000000000000000000000000000000000000000000000000000000148061042157507f01ffc9a7000000000000000000000000000000000000000000000000000000007fffffffff000000000000000000000000000000000000000000000000000000008316145b92915050565b606060038054610436906112bb565b80601f0160208091040260200160405190810160405280929190818152602001828054610462906112bb565b80156104af5780601f10610484576101008083540402835291602001916104af565b820191906000526020600020905b81548152906001019060200180831161049257829003601f168201915b5050505050905090565b6000336104c781858561082f565b5060019392505050565b6000336104df858285610987565b6104ea858585610a19565b506001949350505050565b60008281526005602052604090206001015461051081610c30565b61051a8383610c3d565b505050565b6001600160a01b03811633146105a25760405162461bcd60e51b815260206004820152602f60248201527f416363657373436f6e74726f6c3a2063616e206f6e6c792072656e6f756e636560448201527f20726f6c657320666f722073656c66000000000000000000000000000000000060648201526084015b60405180910390fd5b6105ac8282610cdf565b5050565b3360008181526001602090815260408083206001600160a01b03871684529091528120549091906104c790829086906105ea90879061130c565b61082f565b60006105fa81610c30565b60025461061a5761060d6012600a611408565b60065561051a8383610d62565b61051a8361064161062d6012600a611408565b60065461063b908790610e41565b90610e54565b610d62565b606060048054610436906112bb565b600061066081610c30565b60405162461bcd60e51b815260206004820152600f60248201527f6e6f7420696d706c656d656e74656400000000000000000000000000000000006044820152606401610599565b3360008181526001602090815260408083206001600160a01b0387168452909152812054909190838110156107455760405162461bcd60e51b815260206004820152602560248201527f45524332303a2064656372656173656420616c6c6f77616e63652062656c6f7760448201527f207a65726f0000000000000000000000000000000000000000000000000000006064820152608401610599565b6104ea828686840361082f565b6000336104c7818585610a19565b600061076b81610c30565b600061079161077c6012600a611408565b61063b60065461078b60025490565b90610e41565b90506107cc61079f60025490565b61063b6107ae6012600a611408565b866107c2576107bd8589610e60565b61078b565b61078b8589610e6c565b60068190556040519081527fc04ab144c3f6fd32b71825eb92c20af3c8b2f2b6680dfaf3645b527f098c245b9060200160405180910390a150505050565b60008281526005602052604090206001015461082581610c30565b61051a8383610cdf565b6001600160a01b0383166108aa5760405162461bcd60e51b8152602060048201526024808201527f45524332303a20617070726f76652066726f6d20746865207a65726f2061646460448201527f72657373000000000000000000000000000000000000000000000000000000006064820152608401610599565b6001600160a01b0382166109265760405162461bcd60e51b815260206004820152602260248201527f45524332303a20617070726f766520746f20746865207a65726f20616464726560448201527f73730000000000000000000000000000000000000000000000000000000000006064820152608401610599565b6001600160a01b0383811660008181526001602090815260408083209487168084529482529182902085905590518481527f8c5be1e5ebec7d5bd14f71427d1e84f3dd0314c0f7b2291e5b200ac8c7c3b925910160405180910390a3505050565b6001600160a01b038381166000908152600160209081526040808320938616835292905220546000198114610a135781811015610a065760405162461bcd60e51b815260206004820152601d60248201527f45524332303a20696e73756666696369656e7420616c6c6f77616e63650000006044820152606401610599565b610a13848484840361082f565b50505050565b6001600160a01b038316610a955760405162461bcd60e51b815260206004820152602560248201527f45524332303a207472616e736665722066726f6d20746865207a65726f20616460448201527f64726573730000000000000000000000000000000000000000000000000000006064820152608401610599565b6001600160a01b038216610b115760405162461bcd60e51b815260206004820152602360248201527f45524332303a207472616e7366657220746f20746865207a65726f206164647260448201527f65737300000000000000000000000000000000000000000000000000000000006064820152608401610599565b6001600160a01b03831660009081526020819052604090205481811015610ba05760405162461bcd60e51b815260206004820152602660248201527f45524332303a207472616e7366657220616d6f756e742065786365656473206260448201527f616c616e636500000000000000000000000000000000000000000000000000006064820152608401610599565b6001600160a01b03808516600090815260208190526040808220858503905591851681529081208054849290610bd790849061130c565b92505081905550826001600160a01b0316846001600160a01b03167fddf252ad1be2c89b69c2b068fc378daa952ba7f163c4a11628f55a4df523b3ef84604051610c2391815260200190565b60405180910390a3610a13565b610c3a8133610e78565b50565b60008281526005602090815260408083206001600160a01b038516845290915290205460ff166105ac5760008281526005602090815260408083206001600160a01b03851684529091529020805460ff19166001179055610c9b3390565b6001600160a01b0316816001600160a01b0316837f2f8788117e7eff1d82e926ec794901d17c78024a50270940304540a733656f0d60405160405180910390a45050565b60008281526005602090815260408083206001600160a01b038516845290915290205460ff16156105ac5760008281526005602090815260408083206001600160a01b0385168085529252808320805460ff1916905551339285917ff6391f5c32d9c69d2a47ea670b442974b53935d1edc7fd64eb21e047a839171b9190a45050565b6001600160a01b038216610db85760405162461bcd60e51b815260206004820152601f60248201527f45524332303a206d696e7420746f20746865207a65726f2061646472657373006044820152606401610599565b8060026000828254610dca919061130c565b90915550506001600160a01b03821660009081526020819052604081208054839290610df790849061130c565b90915550506040518181526001600160a01b038316906000907fddf252ad1be2c89b69c2b068fc378daa952ba7f163c4a11628f55a4df523b3ef9060200160405180910390a35050565b6000610e4d8284611417565b9392505050565b6000610e4d8284611436565b6000610e4d8284611458565b6000610e4d828461130c565b60008281526005602090815260408083206001600160a01b038516845290915290205460ff166105ac57610eb6816001600160a01b03166014610ef8565b610ec1836020610ef8565b604051602001610ed292919061146f565b60408051601f198184030181529082905262461bcd60e51b825261059991600401611147565b60606000610f07836002611417565b610f1290600261130c565b67ffffffffffffffff811115610f2a57610f2a6114f0565b6040519080825280601f01601f191660200182016040528015610f54576020820181803683370190505b5090507f300000000000000000000000000000000000000000000000000000000000000081600081518110610f8b57610f8b611506565b60200101906001600160f81b031916908160001a9053507f780000000000000000000000000000000000000000000000000000000000000081600181518110610fd657610fd6611506565b60200101906001600160f81b031916908160001a9053506000610ffa846002611417565b61100590600161130c565b90505b600181111561108a577f303132333435363738396162636465660000000000000000000000000000000085600f166010811061104657611046611506565b1a60f81b82828151811061105c5761105c611506565b60200101906001600160f81b031916908160001a90535060049490941c936110838161151c565b9050611008565b508315610e4d5760405162461bcd60e51b815260206004820181905260248201527f537472696e67733a20686578206c656e67746820696e73756666696369656e746044820152606401610599565b6000602082840312156110eb57600080fd5b81357fffffffff0000000000000000000000000000000000000000000000000000000081168114610e4d57600080fd5b60005b8381101561113657818101518382015260200161111e565b83811115610a135750506000910152565b602081526000825180602084015261116681604085016020870161111b565b601f01601f19169190910160400192915050565b80356001600160a01b038116811461119157600080fd5b919050565b600080604083850312156111a957600080fd5b6111b28361117a565b946020939093013593505050565b6000806000606084860312156111d557600080fd5b6111de8461117a565b92506111ec6020850161117a565b9150604084013590509250925092565b60006020828403121561120e57600080fd5b5035919050565b6000806040838503121561122857600080fd5b823591506112386020840161117a565b90509250929050565b60006020828403121561125357600080fd5b610e4d8261117a565b6000806040838503121561126f57600080fd5b823591506020830135801515811461128657600080fd5b809150509250929050565b600080604083850312156112a457600080fd5b6112ad8361117a565b91506112386020840161117a565b600181811c908216806112cf57607f821691505b602082108114156112f057634e487b7160e01b600052602260045260246000fd5b50919050565b634e487b7160e01b600052601160045260246000fd5b6000821982111561131f5761131f6112f6565b500190565b600181815b8085111561135f578160001904821115611345576113456112f6565b8085161561135257918102915b93841c9390800290611329565b509250929050565b60008261137657506001610421565b8161138357506000610421565b816001811461139957600281146113a3576113bf565b6001915050610421565b60ff8411156113b4576113b46112f6565b50506001821b610421565b5060208310610133831016604e8410600b84101617156113e2575081810a610421565b6113ec8383611324565b8060001904821115611400576114006112f6565b029392505050565b6000610e4d60ff841683611367565b6000816000190483118215151615611431576114316112f6565b500290565b60008261145357634e487b7160e01b600052601260045260246000fd5b500490565b60008282101561146a5761146a6112f6565b500390565b7f416363657373436f6e74726f6c3a206163636f756e74200000000000000000008152600083516114a781601785016020880161111b565b7f206973206d697373696e6720726f6c652000000000000000000000000000000060179184019182015283516114e481602884016020880161111b565b01602801949350505050565b634e487b7160e01b600052604160045260246000fd5b634e487b7160e01b600052603260045260246000fd5b60008161152b5761152b6112f6565b50600019019056fea264697066735822122059a4b0e4968fb1c57c7127710fb470015889022358c1460b31ef95d95025a42164736f6c63430008090033608060405234801561001057600080fd5b5061001c600033610021565b6100cd565b61002b828261002f565b5050565b6000828152602081815260408083206001600160a01b038516845290915290205460ff1661002b576000828152602081815260408083206001600160a01b03851684529091529020805460ff191660011790556100893390565b6001600160a01b0316816001600160a01b0316837f2f8788117e7eff1d82e926ec794901d17c78024a50270940304540a733656f0d60405160405180910390a45050565b61094f806100dc6000396000f3fe60806040526004361061007f5760003560e01c806336568abe1161004e57806336568abe1461013557806391d1485414610155578063a217fddf14610199578063d547741f146101ae57600080fd5b806301ffc9a71461008b578063248a9ca3146100c05780632f2ff15d146100fe578063329eb8391461012057600080fd5b3661008657005b600080fd5b34801561009757600080fd5b506100ab6100a636600461070e565b6101ce565b60405190151581526020015b60405180910390f35b3480156100cc57600080fd5b506100f06100db366004610750565b60009081526020819052604090206001015490565b6040519081526020016100b7565b34801561010a57600080fd5b5061011e610119366004610769565b610267565b005b34801561012c57600080fd5b5061011e610291565b34801561014157600080fd5b5061011e610150366004610769565b6102cc565b34801561016157600080fd5b506100ab610170366004610769565b6000918252602082815260408084206001600160a01b0393909316845291905290205460ff1690565b3480156101a557600080fd5b506100f0600081565b3480156101ba57600080fd5b5061011e6101c9366004610769565b610359565b60007fffffffff0000000000000000000000000000000000000000000000000000000082167f7965db0b00000000000000000000000000000000000000000000000000000000148061026157507f01ffc9a7000000000000000000000000000000000000000000000000000000007fffffffff000000000000000000000000000000000000000000000000000000008316145b92915050565b6000828152602081905260409020600101546102828161037e565b61028c838361038b565b505050565b600061029c8161037e565b60405133904780156108fc02916000818181858888f193505050501580156102c8573d6000803e3d6000fd5b5050565b6001600160a01b038116331461034f5760405162461bcd60e51b815260206004820152602f60248201527f416363657373436f6e74726f6c3a2063616e206f6e6c792072656e6f756e636560448201527f20726f6c657320666f722073656c66000000000000000000000000000000000060648201526084015b60405180910390fd5b6102c88282610429565b6000828152602081905260409020600101546103748161037e565b61028c8383610429565b61038881336104a8565b50565b6000828152602081815260408083206001600160a01b038516845290915290205460ff166102c8576000828152602081815260408083206001600160a01b03851684529091529020805460ff191660011790556103e53390565b6001600160a01b0316816001600160a01b0316837f2f8788117e7eff1d82e926ec794901d17c78024a50270940304540a733656f0d60405160405180910390a45050565b6000828152602081815260408083206001600160a01b038516845290915290205460ff16156102c8576000828152602081815260408083206001600160a01b0385168085529252808320805460ff1916905551339285917ff6391f5c32d9c69d2a47ea670b442974b53935d1edc7fd64eb21e047a839171b9190a45050565b6000828152602081815260408083206001600160a01b038516845290915290205460ff166102c8576104e4816001600160a01b03166014610526565b6104ef836020610526565b6040516020016105009291906107d5565b60408051601f198184030181529082905262461bcd60e51b825261034691600401610856565b6060600061053583600261089f565b6105409060026108be565b67ffffffffffffffff811115610558576105586108d6565b6040519080825280601f01601f191660200182016040528015610582576020820181803683370190505b5090507f3000000000000000000000000000000000000000000000000000000000000000816000815181106105b9576105b96108ec565b60200101906001600160f81b031916908160001a9053507f780000000000000000000000000000000000000000000000000000000000000081600181518110610604576106046108ec565b60200101906001600160f81b031916908160001a905350600061062884600261089f565b6106339060016108be565b90505b60018111156106b8577f303132333435363738396162636465660000000000000000000000000000000085600f1660108110610674576106746108ec565b1a60f81b82828151811061068a5761068a6108ec565b60200101906001600160f81b031916908160001a90535060049490941c936106b181610902565b9050610636565b5083156107075760405162461bcd60e51b815260206004820181905260248201527f537472696e67733a20686578206c656e67746820696e73756666696369656e746044820152606401610346565b9392505050565b60006020828403121561072057600080fd5b81357fffffffff000000000000000000000000000000000000000000000000000000008116811461070757600080fd5b60006020828403121561076257600080fd5b5035919050565b6000806040838503121561077c57600080fd5b8235915060208301356001600160a01b038116811461079a57600080fd5b809150509250929050565b60005b838110156107c05781810151838201526020016107a8565b838111156107cf576000848401525b50505050565b7f416363657373436f6e74726f6c3a206163636f756e742000000000000000000081526000835161080d8160178501602088016107a5565b7f206973206d697373696e6720726f6c6520000000000000000000000000000000601791840191820152835161084a8160288401602088016107a5565b01602801949350505050565b60208152600082518060208401526108758160408501602087016107a5565b601f01601f19169190910160400192915050565b634e487b7160e01b600052601160045260246000fd5b60008160001904831182151516156108b9576108b9610889565b500290565b600082198211156108d1576108d1610889565b500190565b634e487b7160e01b600052604160045260246000fd5b634e487b7160e01b600052603260045260246000fd5b60008161091157610911610889565b50600019019056fea2646970667358221220ca79fa0f7fbec244a8eeef9eb1b3bd4897e4739e614d0e5bfefc1dbb11639abd64736f6c63430008090033a2646970667358221220aaaf92266aa12bc700f08f6746bcf6c6432062f0d1c1ae92aab5407fba0317a664736f6c63430008090033",
  "linkReferences": {},
  "deployedLinkReferences": {}
}