{
  "_format": "hh-sol-artifact-1",
  "contractName": "StakeStar",
  "sourceName": "contracts/StakeStar.sol",
  "abi": [
    {
      "anonymous": false,
      "inputs": [
        {
          "indexed": false,
          "internalType": "uint8",
          "name": "version",
          "type": "uint8"
        }
      ],
      "name": "Initialized",
      "type": "event"
    },
    {
      "anonymous": false,
      "inputs": [
        {
          "indexed": true,
          "internalType": "bytes32",
          "name": "role",
          "type": "bytes32"
        },
        {
          "indexed": true,
          "internalType": "bytes32",
          "name": "previousAdminRole",
          "type": "bytes32"
        },
        {
          "indexed": true,
          "internalType": "bytes32",
          "name": "newAdminRole",
          "type": "bytes32"
        }
      ],
      "name": "RoleAdminChanged",
      "type": "event"
    },
    {
      "anonymous": false,
      "inputs": [
        {
          "indexed": true,
          "internalType": "bytes32",
          "name": "role",
          "type": "bytes32"
        },
        {
          "indexed": true,
          "internalType": "address",
          "name": "account",
          "type": "address"
        },
        {
          "indexed": true,
          "internalType": "address",
          "name": "sender",
          "type": "address"
        }
      ],
      "name": "RoleGranted",
      "type": "event"
    },
    {
      "anonymous": false,
      "inputs": [
        {
          "indexed": true,
          "internalType": "bytes32",
          "name": "role",
          "type": "bytes32"
        },
        {
          "indexed": true,
          "internalType": "address",
          "name": "account",
          "type": "address"
        },
        {
          "indexed": true,
          "internalType": "address",
          "name": "sender",
          "type": "address"
        }
      ],
      "name": "RoleRevoked",
      "type": "event"
    },
    {
      "inputs": [],
      "name": "DEFAULT_ADMIN_ROLE",
      "outputs": [
        {
          "internalType": "bytes32",
          "name": "",
          "type": "bytes32"
        }
      ],
      "stateMutability": "view",
      "type": "function"
    },
    {
      "inputs": [
        {
          "internalType": "uint256",
          "name": "amount",
          "type": "uint256"
        }
      ],
      "name": "applyPenalties",
      "outputs": [],
      "stateMutability": "nonpayable",
      "type": "function"
    },
    {
      "inputs": [],
      "name": "applyRewards",
      "outputs": [],
      "stateMutability": "nonpayable",
      "type": "function"
    },
    {
      "inputs": [],
      "name": "claim",
      "outputs": [],
      "stateMutability": "nonpayable",
      "type": "function"
    },
    {
      "inputs": [
        {
          "components": [
            {
              "internalType": "bytes",
              "name": "publicKey",
              "type": "bytes"
            },
            {
              "internalType": "bytes",
              "name": "withdrawalCredentials",
              "type": "bytes"
            },
            {
              "internalType": "bytes",
              "name": "signature",
              "type": "bytes"
            },
            {
              "internalType": "bytes32",
              "name": "depositDataRoot",
              "type": "bytes32"
            },
            {
              "internalType": "uint32[]",
              "name": "operatorIds",
              "type": "uint32[]"
            },
            {
              "internalType": "bytes[]",
              "name": "sharesPublicKeys",
              "type": "bytes[]"
            },
            {
              "internalType": "bytes[]",
              "name": "sharesEncrypted",
              "type": "bytes[]"
            }
          ],
          "internalType": "struct StakeStar.ValidatorParams",
          "name": "validatorParams",
          "type": "tuple"
        },
        {
          "internalType": "uint256",
          "name": "ssvDepositAmount",
          "type": "uint256"
        }
      ],
      "name": "createValidator",
      "outputs": [],
      "stateMutability": "nonpayable",
      "type": "function"
    },
    {
      "inputs": [],
      "name": "depositContract",
      "outputs": [
        {
          "internalType": "contract IDepositContract",
          "name": "",
          "type": "address"
        }
      ],
      "stateMutability": "view",
      "type": "function"
    },
    {
      "inputs": [],
      "name": "destroyValidator",
      "outputs": [],
      "stateMutability": "nonpayable",
      "type": "function"
    },
    {
      "inputs": [
        {
          "internalType": "bytes32",
          "name": "role",
          "type": "bytes32"
        }
      ],
      "name": "getRoleAdmin",
      "outputs": [
        {
          "internalType": "bytes32",
          "name": "",
          "type": "bytes32"
        }
      ],
      "stateMutability": "view",
      "type": "function"
    },
    {
      "inputs": [
        {
          "internalType": "bytes32",
          "name": "role",
          "type": "bytes32"
        },
        {
          "internalType": "address",
          "name": "account",
          "type": "address"
        }
      ],
      "name": "grantRole",
      "outputs": [],
      "stateMutability": "nonpayable",
      "type": "function"
    },
    {
      "inputs": [
        {
          "internalType": "bytes32",
          "name": "role",
          "type": "bytes32"
        },
        {
          "internalType": "address",
          "name": "account",
          "type": "address"
        }
      ],
      "name": "hasRole",
      "outputs": [
        {
          "internalType": "bool",
          "name": "",
          "type": "bool"
        }
      ],
      "stateMutability": "view",
      "type": "function"
    },
    {
      "inputs": [
        {
          "internalType": "address",
          "name": "depositContractAddress",
          "type": "address"
        },
        {
          "internalType": "address",
          "name": "ssvNetworkAddress",
          "type": "address"
        },
        {
          "internalType": "address",
          "name": "ssvTokenAddress",
          "type": "address"
        },
        {
          "internalType": "address",
          "name": "stakeStarRegistryAddress",
          "type": "address"
        }
      ],
      "name": "initialize",
      "outputs": [],
      "stateMutability": "nonpayable",
      "type": "function"
    },
    {
      "inputs": [
        {
          "internalType": "bytes32",
          "name": "role",
          "type": "bytes32"
        },
        {
          "internalType": "address",
          "name": "account",
          "type": "address"
        }
      ],
      "name": "renounceRole",
      "outputs": [],
      "stateMutability": "nonpayable",
      "type": "function"
    },
    {
      "inputs": [
        {
          "internalType": "bytes32",
          "name": "role",
          "type": "bytes32"
        },
        {
          "internalType": "address",
          "name": "account",
          "type": "address"
        }
      ],
      "name": "revokeRole",
      "outputs": [],
      "stateMutability": "nonpayable",
      "type": "function"
    },
    {
      "inputs": [],
      "name": "ssvNetwork",
      "outputs": [
        {
          "internalType": "contract ISSVNetwork",
          "name": "",
          "type": "address"
        }
      ],
      "stateMutability": "view",
      "type": "function"
    },
    {
      "inputs": [],
      "name": "ssvToken",
      "outputs": [
        {
          "internalType": "contract IERC20",
          "name": "",
          "type": "address"
        }
      ],
      "stateMutability": "view",
      "type": "function"
    },
    {
      "inputs": [],
      "name": "stake",
      "outputs": [],
      "stateMutability": "payable",
      "type": "function"
    },
    {
      "inputs": [],
      "name": "stakeStarETH",
      "outputs": [
        {
          "internalType": "contract StakeStarETH",
          "name": "",
          "type": "address"
        }
      ],
      "stateMutability": "view",
      "type": "function"
    },
    {
      "inputs": [],
      "name": "stakeStarRegistry",
      "outputs": [
        {
          "internalType": "contract StakeStarRegistry",
          "name": "",
          "type": "address"
        }
      ],
      "stateMutability": "view",
      "type": "function"
    },
    {
      "inputs": [],
      "name": "stakeStarRewards",
      "outputs": [
        {
          "internalType": "contract StakeStarRewards",
          "name": "",
          "type": "address"
        }
      ],
      "stateMutability": "view",
      "type": "function"
    },
    {
      "inputs": [
        {
          "internalType": "bytes4",
          "name": "interfaceId",
          "type": "bytes4"
        }
      ],
      "name": "supportsInterface",
      "outputs": [
        {
          "internalType": "bool",
          "name": "",
          "type": "bool"
        }
      ],
      "stateMutability": "view",
      "type": "function"
    },
    {
      "inputs": [
        {
          "internalType": "uint256",
          "name": "amount",
          "type": "uint256"
        }
      ],
      "name": "unstake",
      "outputs": [],
      "stateMutability": "nonpayable",
      "type": "function"
    },
    {
      "inputs": [],
      "name": "validatorCreationAvailability",
      "outputs": [
        {
          "internalType": "bool",
          "name": "",
          "type": "bool"
        }
      ],
      "stateMutability": "view",
      "type": "function"
    },
    {
      "inputs": [],
      "name": "validatorDestructionAvailability",
      "outputs": [
        {
          "internalType": "bool",
          "name": "",
          "type": "bool"
        }
      ],
      "stateMutability": "view",
      "type": "function"
    },
    {
      "stateMutability": "payable",
      "type": "receive"
    }
  ],
  "bytecode": "0x608060405234801561001057600080fd5b50613b5a806100206000396000f3fe608060405260043610620001a35760003560e01c806371ccda4e11620000e7578063bf2be05e1162000089578063e932ebc41162000060578063e932ebc41462000483578063e94ad65b14620004a4578063f8c8765e14620004c657600080fd5b8063bf2be05e1462000424578063d547741f146200043c578063d5b00c0b146200046157600080fd5b8063a217fddf11620000be578063a217fddf14620003e8578063a5b04cd914620003ff578063a99a9e78146200034957600080fd5b806371ccda4e14620003615780638c25b4eb146200037957806391d14854146200039e57600080fd5b806328c56d5a116200015157806336568abe116200012857806336568abe146200031a5780633a4b66f1146200033f5780634e71d92d146200034957600080fd5b806328c56d5a14620002ac5780632e17de7814620002ce5780632f2ff15d14620002f557600080fd5b80630f20f8e911620001865780630f20f8e9146200022557806310d048581462000247578063248a9ca3146200026957600080fd5b806301ffc9a714620001b05780630da382a114620001ea57600080fd5b36620001ab57005b600080fd5b348015620001bd57600080fd5b50620001d5620001cf36600462001200565b620004eb565b60405190151581526020015b60405180910390f35b348015620001f757600080fd5b506097546200020c906001600160a01b031681565b6040516001600160a01b039091168152602001620001e1565b3480156200023257600080fd5b506099546200020c906001600160a01b031681565b3480156200025457600080fd5b50609b546200020c906001600160a01b031681565b3480156200027657600080fd5b506200029d6200028836600462001244565b60009081526065602052604090206001015490565b604051908152602001620001e1565b348015620002b957600080fd5b50609c546200020c906001600160a01b031681565b348015620002db57600080fd5b50620002f3620002ed36600462001244565b62000585565b005b3480156200030257600080fd5b50620002f3620003143660046200127b565b620005d2565b3480156200032757600080fd5b50620002f3620003393660046200127b565b62000600565b620002f362000690565b3480156200035657600080fd5b50620002f362000585565b3480156200036e57600080fd5b50620001d562000762565b3480156200038657600080fd5b50620002f36200039836600462001244565b620007ae565b348015620003ab57600080fd5b50620001d5620003bd3660046200127b565b60009182526065602090815260408084206001600160a01b0393909316845291905290205460ff1690565b348015620003f557600080fd5b506200029d600081565b3480156200040c57600080fd5b50620002f36200041e366004620012aa565b62000826565b3480156200043157600080fd5b50620002f362000a81565b3480156200044957600080fd5b50620002f36200045b3660046200127b565b62000bb1565b3480156200046e57600080fd5b506098546200020c906001600160a01b031681565b3480156200049057600080fd5b506801bc16d674ec800000471015620001d5565b348015620004b157600080fd5b50609a546200020c906001600160a01b031681565b348015620004d357600080fd5b50620002f3620004e5366004620012f7565b62000bda565b60007fffffffff0000000000000000000000000000000000000000000000000000000082167f7965db0b0000000000000000000000000000000000000000000000000000000014806200057f57507f01ffc9a7000000000000000000000000000000000000000000000000000000007fffffffff000000000000000000000000000000000000000000000000000000008316145b92915050565b60405162461bcd60e51b815260206004820152600f60248201527f6e6f7420696d706c656d656e746564000000000000000000000000000000000060448201526064015b60405180910390fd5b600082815260656020526040902060010154620005ef8162000e12565b620005fb838362000e21565b505050565b6001600160a01b0381163314620006805760405162461bcd60e51b815260206004820152602f60248201527f416363657373436f6e74726f6c3a2063616e206f6e6c792072656e6f756e636560448201527f20726f6c657320666f722073656c6600000000000000000000000000000000006064820152608401620005c9565b6200068c828262000ec5565b5050565b60003411620006e25760405162461bcd60e51b815260206004820152601960248201527f696e73756666696369656e74207374616b6520616d6f756e74000000000000006044820152606401620005c9565b6098546040517f40c10f190000000000000000000000000000000000000000000000000000000081523360048201523460248201526001600160a01b03909116906340c10f1990604401600060405180830381600087803b1580156200074757600080fd5b505af11580156200075c573d6000803e3d6000fd5b50505050565b60405162461bcd60e51b815260206004820152600f60248201527f6e6f7420696d706c656d656e74656400000000000000000000000000000000006044820152600090606401620005c9565b6000620007bb8162000e12565b60985460405163c467413d60e01b815260048101849052600060248201526001600160a01b039091169063c467413d90604401600060405180830381600087803b1580156200080957600080fd5b505af11580156200081e573d6000803e3d6000fd5b505050505050565b6000620008338162000e12565b6801bc16d674ec8000004710156200088e5760405162461bcd60e51b815260206004820181905260248201527f76616c696461746f72206372656174696f6e206e6f7420617661696c61626c656044820152606401620005c9565b609a546001600160a01b031663228951186801bc16d674ec800000620008b5868062001354565b620008c4602089018962001354565b620008d360408b018b62001354565b8b606001356040518963ffffffff1660e01b8152600401620008fc9796959493929190620013ce565b6000604051808303818588803b1580156200091657600080fd5b505af11580156200092b573d6000803e3d6000fd5b5050609c54609b546040517f095ea7b30000000000000000000000000000000000000000000000000000000081526001600160a01b039182166004820152602481018890529116935063095ea7b392506044019050602060405180830381600087803b1580156200099b57600080fd5b505af1158015620009b0573d6000803e3d6000fd5b505050506040513d601f19601f82011682018060405250810190620009d6919062001425565b50609b546001600160a01b031663e40cb19d620009f4858062001354565b62000a03608088018862001449565b62000a1260a08a018a62001449565b62000a2160c08c018c62001449565b8b6040518a63ffffffff1660e01b815260040162000a48999897969594939291906200152e565b600060405180830381600087803b15801562000a6357600080fd5b505af115801562000a78573d6000803e3d6000fd5b50505050505050565b6099546001600160a01b0316318062000add5760405162461bcd60e51b815260206004820152600a60248201527f6e6f2072657761726473000000000000000000000000000000000000000000006044820152606401620005c9565b609960009054906101000a90046001600160a01b03166001600160a01b031663329eb8396040518163ffffffff1660e01b8152600401600060405180830381600087803b15801562000b2e57600080fd5b505af115801562000b43573d6000803e3d6000fd5b505060985460405163c467413d60e01b815260048101859052600160248201526001600160a01b03909116925063c467413d9150604401600060405180830381600087803b15801562000b9557600080fd5b505af115801562000baa573d6000803e3d6000fd5b5050505050565b60008281526065602052604090206001015462000bce8162000e12565b620005fb838362000ec5565b600054610100900460ff161580801562000bfb5750600054600160ff909116105b8062000c175750303b15801562000c17575060005460ff166001145b62000c8b5760405162461bcd60e51b815260206004820152602e60248201527f496e697469616c697a61626c653a20636f6e747261637420697320616c72656160448201527f647920696e697469616c697a65640000000000000000000000000000000000006064820152608401620005c9565b6000805460ff19166001179055801562000caf576000805461ff0019166101001790555b609a80546001600160a01b0380881673ffffffffffffffffffffffffffffffffffffffff1992831617909255609b8054878416908316179055609c8054868416908316179055609780549285169290911691909117905560405162000d1490620011e4565b604051809103906000f08015801562000d31573d6000803e3d6000fd5b506098805473ffffffffffffffffffffffffffffffffffffffff19166001600160a01b039290921691909117905560405162000d6d90620011f2565b604051809103906000f08015801562000d8a573d6000803e3d6000fd5b506099805473ffffffffffffffffffffffffffffffffffffffff19166001600160a01b039290921691909117905562000dc560003362000f49565b801562000baa576000805461ff0019169055604051600181527f7f26b83ff96e1f2b6a682f133852f6798a09c465da95921460cefb38474024989060200160405180910390a15050505050565b62000e1e813362000f55565b50565b60008281526065602090815260408083206001600160a01b038516845290915290205460ff166200068c5760008281526065602090815260408083206001600160a01b03851684529091529020805460ff1916600117905562000e813390565b6001600160a01b0316816001600160a01b0316837f2f8788117e7eff1d82e926ec794901d17c78024a50270940304540a733656f0d60405160405180910390a45050565b60008281526065602090815260408083206001600160a01b038516845290915290205460ff16156200068c5760008281526065602090815260408083206001600160a01b0385168085529252808320805460ff1916905551339285917ff6391f5c32d9c69d2a47ea670b442974b53935d1edc7fd64eb21e047a839171b9190a45050565b6200068c828262000e21565b60008281526065602090815260408083206001600160a01b038516845290915290205460ff166200068c5762000f96816001600160a01b0316601462000fde565b62000fa383602062000fde565b60405160200162000fb692919062001603565b60408051601f198184030181529082905262461bcd60e51b8252620005c99160040162001688565b6060600062000fef836002620016d3565b62000ffc906002620016f5565b67ffffffffffffffff81111562001017576200101762001710565b6040519080825280601f01601f19166020018201604052801562001042576020820181803683370190505b5090507f3000000000000000000000000000000000000000000000000000000000000000816000815181106200107c576200107c62001726565b60200101906001600160f81b031916908160001a9053507f780000000000000000000000000000000000000000000000000000000000000081600181518110620010ca57620010ca62001726565b60200101906001600160f81b031916908160001a9053506000620010f0846002620016d3565b620010fd906001620016f5565b90505b60018111156200118c577f303132333435363738396162636465660000000000000000000000000000000085600f166010811062001142576200114262001726565b1a60f81b8282815181106200115b576200115b62001726565b60200101906001600160f81b031916908160001a90535060049490941c9362001184816200173c565b905062001100565b508315620011dd5760405162461bcd60e51b815260206004820181905260248201527f537472696e67733a20686578206c656e67746820696e73756666696369656e746044820152606401620005c9565b9392505050565b6119a3806200175783390190565b610a2b80620030fa83390190565b6000602082840312156200121357600080fd5b81357fffffffff0000000000000000000000000000000000000000000000000000000081168114620011dd57600080fd5b6000602082840312156200125757600080fd5b5035919050565b80356001600160a01b03811681146200127657600080fd5b919050565b600080604083850312156200128f57600080fd5b82359150620012a1602084016200125e565b90509250929050565b60008060408385031215620012be57600080fd5b823567ffffffffffffffff811115620012d657600080fd5b830160e08186031215620012e957600080fd5b946020939093013593505050565b600080600080608085870312156200130e57600080fd5b62001319856200125e565b935062001329602086016200125e565b925062001339604086016200125e565b915062001349606086016200125e565b905092959194509250565b6000808335601e198436030181126200136c57600080fd5b83018035915067ffffffffffffffff8211156200138857600080fd5b6020019150368190038213156200139e57600080fd5b9250929050565b81835281816020850137506000828201602090810191909152601f909101601f19169091010190565b608081526000620013e460808301898b620013a5565b8281036020840152620013f981888a620013a5565b9050828103604084015262001410818688620013a5565b91505082606083015298975050505050505050565b6000602082840312156200143857600080fd5b81518015158114620011dd57600080fd5b6000808335601e198436030181126200146157600080fd5b83018035915067ffffffffffffffff8211156200147d57600080fd5b6020019150600581901b36038213156200139e57600080fd5b81835260006020808501808196508560051b810191508460005b87811015620015215782840389528135601e19883603018112620014d357600080fd5b8701803567ffffffffffffffff811115620014ed57600080fd5b803603891315620014fd57600080fd5b6200150c8682898501620013a5565b9a87019a9550505090840190600101620014b0565b5091979650505050505050565b60a0815260006200154460a083018b8d620013a5565b8281036020848101919091528982528a9181016000805b8c8110156200158d57843563ffffffff811680821462001579578384fd5b84525093830193918301916001016200155b565b50508481036040860152620015a4818a8c62001496565b925050508281036060840152620015bd81868862001496565b9150508260808301529a9950505050505050505050565b60005b83811015620015f1578181015183820152602001620015d7565b838111156200075c5750506000910152565b7f416363657373436f6e74726f6c3a206163636f756e74200000000000000000008152600083516200163d816017850160208801620015d4565b7f206973206d697373696e6720726f6c652000000000000000000000000000000060179184019182015283516200167c816028840160208801620015d4565b01602801949350505050565b6020815260008251806020840152620016a9816040850160208701620015d4565b601f01601f19169190910160400192915050565b634e487b7160e01b600052601160045260246000fd5b6000816000190483118215151615620016f057620016f0620016bd565b500290565b600082198211156200170b576200170b620016bd565b500190565b634e487b7160e01b600052604160045260246000fd5b634e487b7160e01b600052603260045260246000fd5b6000816200174e576200174e620016bd565b50600019019056fe60806040523480156200001157600080fd5b50604080518082018252600d81526c0a6e8c2d6caa6e8c2e4408aa89609b1b6020808301918252835180850190945260058452640e6e68aa8960db1b9084015281519192916200006491600391620001ba565b5080516200007a906004906020840190620001ba565b50505062000090600180620000a660201b60201c565b600655620000a0600033620000ea565b620002ee565b6000620000e382620000cf670de0b6b3a764000086620000fa60201b620008c11790919060201c565b6200010860201b620008d41790919060201c565b9392505050565b620000f6828262000116565b5050565b6000620000e3828462000260565b6000620000e382846200028e565b60008281526005602090815260408083206001600160a01b038516845290915290205460ff16620000f65760008281526005602090815260408083206001600160a01b03851684529091529020805460ff19166001179055620001763390565b6001600160a01b0316816001600160a01b0316837f2f8788117e7eff1d82e926ec794901d17c78024a50270940304540a733656f0d60405160405180910390a45050565b828054620001c890620002b1565b90600052602060002090601f016020900481019282620001ec576000855562000237565b82601f106200020757805160ff191683800117855562000237565b8280016001018555821562000237579182015b82811115620002375782518255916020019190600101906200021a565b506200024592915062000249565b5090565b5b808211156200024557600081556001016200024a565b60008160001904831182151516156200028957634e487b7160e01b600052601160045260246000fd5b500290565b600082620002ac57634e487b7160e01b600052601260045260246000fd5b500490565b600181811c90821680620002c657607f821691505b60208210811415620002e857634e487b7160e01b600052602260045260246000fd5b50919050565b6116a580620002fe6000396000f3fe608060405234801561001057600080fd5b50600436106101985760003560e01c806340c10f19116100e3578063a457c2d71161008c578063d547741f11610066578063d547741f14610370578063dbdc05e314610383578063dd62ed3e1461039657600080fd5b8063a457c2d714610337578063a9059cbb1461034a578063c467413d1461035d57600080fd5b806395d89b41116100bd57806395d89b41146103145780639dc29fac1461031c578063a217fddf1461032f57600080fd5b806340c10f191461029f57806370a08231146102b257806391d14854146102db57600080fd5b8063248a9ca311610145578063313ce5671161011f578063313ce5671461026a57806336568abe14610279578063395093511461028c57600080fd5b8063248a9ca3146102295780632c4e722e1461024c5780632f2ff15d1461025557600080fd5b8063095ea7b311610176578063095ea7b3146101fb57806318160ddd1461020e57806323b872dd1461021657600080fd5b806301ffc9a71461019d578063031400e1146101c557806306fdde03146101e6575b600080fd5b6101b06101ab366004611308565b6103cf565b60405190151581526020015b60405180910390f35b6101d86101d336600461134a565b610468565b6040519081526020016101bc565b6101ee61048a565b6040516101bc919061138f565b6101b06102093660046113de565b61051c565b6002546101d8565b6101b0610224366004611408565b610534565b6101d861023736600461134a565b60009081526005602052604090206001015490565b6101d860065481565b610268610263366004611444565b610558565b005b604051601281526020016101bc565b610268610287366004611444565b610582565b6101b061029a3660046113de565b610613565b6102686102ad3660046113de565b610652565b6101d86102c0366004611470565b6001600160a01b031660009081526020819052604090205490565b6101b06102e9366004611444565b60009182526005602090815260408084206001600160a01b0393909316845291905290205460ff1690565b6101ee6106c8565b61026861032a3660046113de565b6106d7565b6101d8600081565b6101b06103453660046113de565b61073f565b6101b06103583660046113de565b6107e9565b61026861036b36600461148b565b6107f7565b61026861037e366004611444565b610879565b6101d861039136600461134a565b61089e565b6101d86103a43660046114c0565b6001600160a01b03918216600090815260016020908152604080832093909416825291909152205490565b60007fffffffff0000000000000000000000000000000000000000000000000000000082167f7965db0b00000000000000000000000000000000000000000000000000000000148061046257507f01ffc9a7000000000000000000000000000000000000000000000000000000007fffffffff000000000000000000000000000000000000000000000000000000008316145b92915050565b6006546000906104629061048484670de0b6b3a76400006108c1565b906108d4565b606060038054610499906114ea565b80601f01602080910402602001604051908101604052809291908181526020018280546104c5906114ea565b80156105125780601f106104e757610100808354040283529160200191610512565b820191906000526020600020905b8154815290600101906020018083116104f557829003601f168201915b5050505050905090565b60003361052a8185856108e0565b5060019392505050565b600033610542858285610a38565b61054d858585610aca565b506001949350505050565b60008281526005602052604090206001015461057381610ce1565b61057d8383610cee565b505050565b6001600160a01b03811633146106055760405162461bcd60e51b815260206004820152602f60248201527f416363657373436f6e74726f6c3a2063616e206f6e6c792072656e6f756e636560448201527f20726f6c657320666f722073656c66000000000000000000000000000000000060648201526084015b60405180910390fd5b61060f8282610d90565b5050565b3360008181526001602090815260408083206001600160a01b038716845290915281205490919061052a908290869061064d90879061153b565b6108e0565b600061065d81610ce1565b600061066883610468565b90506106748482610e13565b836001600160a01b03167f4c209b5fc8ad50758f13e2e1088ba56a560dff690a1c6fef26394f4c03821c4f826006546040516106ba929190918252602082015260400190565b60405180910390a250505050565b606060048054610499906114ea565b60006106e281610ce1565b60006106ed83610468565b90506106f98482610ef2565b836001600160a01b03167f49995e5dd6158cf69ad3e9777c46755a1a826a446c6416992167462dad033b2a826006546040516106ba929190918252602082015260400190565b3360008181526001602090815260408083206001600160a01b0387168452909152812054909190838110156107dc5760405162461bcd60e51b815260206004820152602560248201527f45524332303a2064656372656173656420616c6c6f77616e63652062656c6f7760448201527f207a65726f00000000000000000000000000000000000000000000000000000060648201526084016105fc565b61054d82868684036108e0565b60003361052a818585610aca565b600061080281610ce1565b600061081061039160025490565b905061083b83610829576108248286611077565b610833565b6108338286611083565b60025461108f565b60068190556040519081527fc04ab144c3f6fd32b71825eb92c20af3c8b2f2b6680dfaf3645b527f098c245b9060200160405180910390a150505050565b60008281526005602052604090206001015461089481610ce1565b61057d8383610d90565b6000610462670de0b6b3a7640000610484600654856108c190919063ffffffff16565b60006108cd8284611553565b9392505050565b60006108cd8284611572565b6001600160a01b03831661095b5760405162461bcd60e51b8152602060048201526024808201527f45524332303a20617070726f76652066726f6d20746865207a65726f2061646460448201527f726573730000000000000000000000000000000000000000000000000000000060648201526084016105fc565b6001600160a01b0382166109d75760405162461bcd60e51b815260206004820152602260248201527f45524332303a20617070726f766520746f20746865207a65726f20616464726560448201527f737300000000000000000000000000000000000000000000000000000000000060648201526084016105fc565b6001600160a01b0383811660008181526001602090815260408083209487168084529482529182902085905590518481527f8c5be1e5ebec7d5bd14f71427d1e84f3dd0314c0f7b2291e5b200ac8c7c3b925910160405180910390a3505050565b6001600160a01b038381166000908152600160209081526040808320938616835292905220546000198114610ac45781811015610ab75760405162461bcd60e51b815260206004820152601d60248201527f45524332303a20696e73756666696369656e7420616c6c6f77616e636500000060448201526064016105fc565b610ac484848484036108e0565b50505050565b6001600160a01b038316610b465760405162461bcd60e51b815260206004820152602560248201527f45524332303a207472616e736665722066726f6d20746865207a65726f20616460448201527f647265737300000000000000000000000000000000000000000000000000000060648201526084016105fc565b6001600160a01b038216610bc25760405162461bcd60e51b815260206004820152602360248201527f45524332303a207472616e7366657220746f20746865207a65726f206164647260448201527f657373000000000000000000000000000000000000000000000000000000000060648201526084016105fc565b6001600160a01b03831660009081526020819052604090205481811015610c515760405162461bcd60e51b815260206004820152602660248201527f45524332303a207472616e7366657220616d6f756e742065786365656473206260448201527f616c616e6365000000000000000000000000000000000000000000000000000060648201526084016105fc565b6001600160a01b03808516600090815260208190526040808220858503905591851681529081208054849290610c8890849061153b565b92505081905550826001600160a01b0316846001600160a01b03167fddf252ad1be2c89b69c2b068fc378daa952ba7f163c4a11628f55a4df523b3ef84604051610cd491815260200190565b60405180910390a3610ac4565b610ceb81336110a7565b50565b60008281526005602090815260408083206001600160a01b038516845290915290205460ff1661060f5760008281526005602090815260408083206001600160a01b03851684529091529020805460ff19166001179055610d4c3390565b6001600160a01b0316816001600160a01b0316837f2f8788117e7eff1d82e926ec794901d17c78024a50270940304540a733656f0d60405160405180910390a45050565b60008281526005602090815260408083206001600160a01b038516845290915290205460ff161561060f5760008281526005602090815260408083206001600160a01b0385168085529252808320805460ff1916905551339285917ff6391f5c32d9c69d2a47ea670b442974b53935d1edc7fd64eb21e047a839171b9190a45050565b6001600160a01b038216610e695760405162461bcd60e51b815260206004820152601f60248201527f45524332303a206d696e7420746f20746865207a65726f20616464726573730060448201526064016105fc565b8060026000828254610e7b919061153b565b90915550506001600160a01b03821660009081526020819052604081208054839290610ea890849061153b565b90915550506040518181526001600160a01b038316906000907fddf252ad1be2c89b69c2b068fc378daa952ba7f163c4a11628f55a4df523b3ef9060200160405180910390a35050565b6001600160a01b038216610f6e5760405162461bcd60e51b815260206004820152602160248201527f45524332303a206275726e2066726f6d20746865207a65726f2061646472657360448201527f730000000000000000000000000000000000000000000000000000000000000060648201526084016105fc565b6001600160a01b03821660009081526020819052604090205481811015610ffd5760405162461bcd60e51b815260206004820152602260248201527f45524332303a206275726e20616d6f756e7420657863656564732062616c616e60448201527f636500000000000000000000000000000000000000000000000000000000000060648201526084016105fc565b6001600160a01b038316600090815260208190526040812083830390556002805484929061102c908490611594565b90915550506040518281526000906001600160a01b038516907fddf252ad1be2c89b69c2b068fc378daa952ba7f163c4a11628f55a4df523b3ef9060200160405180910390a3505050565b60006108cd8284611594565b60006108cd828461153b565b60006108cd8261048485670de0b6b3a76400006108c1565b60008281526005602090815260408083206001600160a01b038516845290915290205460ff1661060f576110e5816001600160a01b03166014611127565b6110f0836020611127565b6040516020016111019291906115ab565b60408051601f198184030181529082905262461bcd60e51b82526105fc9160040161138f565b60606000611136836002611553565b61114190600261153b565b67ffffffffffffffff8111156111595761115961162c565b6040519080825280601f01601f191660200182016040528015611183576020820181803683370190505b5090507f3000000000000000000000000000000000000000000000000000000000000000816000815181106111ba576111ba611642565b60200101906001600160f81b031916908160001a9053507f78000000000000000000000000000000000000000000000000000000000000008160018151811061120557611205611642565b60200101906001600160f81b031916908160001a9053506000611229846002611553565b61123490600161153b565b90505b60018111156112b9577f303132333435363738396162636465660000000000000000000000000000000085600f166010811061127557611275611642565b1a60f81b82828151811061128b5761128b611642565b60200101906001600160f81b031916908160001a90535060049490941c936112b281611658565b9050611237565b5083156108cd5760405162461bcd60e51b815260206004820181905260248201527f537472696e67733a20686578206c656e67746820696e73756666696369656e7460448201526064016105fc565b60006020828403121561131a57600080fd5b81357fffffffff00000000000000000000000000000000000000000000000000000000811681146108cd57600080fd5b60006020828403121561135c57600080fd5b5035919050565b60005b8381101561137e578181015183820152602001611366565b83811115610ac45750506000910152565b60208152600082518060208401526113ae816040850160208701611363565b601f01601f19169190910160400192915050565b80356001600160a01b03811681146113d957600080fd5b919050565b600080604083850312156113f157600080fd5b6113fa836113c2565b946020939093013593505050565b60008060006060848603121561141d57600080fd5b611426846113c2565b9250611434602085016113c2565b9150604084013590509250925092565b6000806040838503121561145757600080fd5b82359150611467602084016113c2565b90509250929050565b60006020828403121561148257600080fd5b6108cd826113c2565b6000806040838503121561149e57600080fd5b82359150602083013580151581146114b557600080fd5b809150509250929050565b600080604083850312156114d357600080fd5b6114dc836113c2565b9150611467602084016113c2565b600181811c908216806114fe57607f821691505b6020821081141561151f57634e487b7160e01b600052602260045260246000fd5b50919050565b634e487b7160e01b600052601160045260246000fd5b6000821982111561154e5761154e611525565b500190565b600081600019048311821515161561156d5761156d611525565b500290565b60008261158f57634e487b7160e01b600052601260045260246000fd5b500490565b6000828210156115a6576115a6611525565b500390565b7f416363657373436f6e74726f6c3a206163636f756e74200000000000000000008152600083516115e3816017850160208801611363565b7f206973206d697373696e6720726f6c65200000000000000000000000000000006017918401918201528351611620816028840160208801611363565b01602801949350505050565b634e487b7160e01b600052604160045260246000fd5b634e487b7160e01b600052603260045260246000fd5b60008161166757611667611525565b50600019019056fea2646970667358221220e4247f011926e6178b55b97d3f62b48ab02dff019172c2eaa29a913f6214847164736f6c63430008090033608060405234801561001057600080fd5b5061001c600033610021565b6100cd565b61002b828261002f565b5050565b6000828152602081815260408083206001600160a01b038516845290915290205460ff1661002b576000828152602081815260408083206001600160a01b03851684529091529020805460ff191660011790556100893390565b6001600160a01b0316816001600160a01b0316837f2f8788117e7eff1d82e926ec794901d17c78024a50270940304540a733656f0d60405160405180910390a45050565b61094f806100dc6000396000f3fe60806040526004361061007f5760003560e01c806336568abe1161004e57806336568abe1461013557806391d1485414610155578063a217fddf14610199578063d547741f146101ae57600080fd5b806301ffc9a71461008b578063248a9ca3146100c05780632f2ff15d146100fe578063329eb8391461012057600080fd5b3661008657005b600080fd5b34801561009757600080fd5b506100ab6100a636600461070e565b6101ce565b60405190151581526020015b60405180910390f35b3480156100cc57600080fd5b506100f06100db366004610750565b60009081526020819052604090206001015490565b6040519081526020016100b7565b34801561010a57600080fd5b5061011e610119366004610769565b610267565b005b34801561012c57600080fd5b5061011e610291565b34801561014157600080fd5b5061011e610150366004610769565b6102cc565b34801561016157600080fd5b506100ab610170366004610769565b6000918252602082815260408084206001600160a01b0393909316845291905290205460ff1690565b3480156101a557600080fd5b506100f0600081565b3480156101ba57600080fd5b5061011e6101c9366004610769565b610359565b60007fffffffff0000000000000000000000000000000000000000000000000000000082167f7965db0b00000000000000000000000000000000000000000000000000000000148061026157507f01ffc9a7000000000000000000000000000000000000000000000000000000007fffffffff000000000000000000000000000000000000000000000000000000008316145b92915050565b6000828152602081905260409020600101546102828161037e565b61028c838361038b565b505050565b600061029c8161037e565b60405133904780156108fc02916000818181858888f193505050501580156102c8573d6000803e3d6000fd5b5050565b6001600160a01b038116331461034f5760405162461bcd60e51b815260206004820152602f60248201527f416363657373436f6e74726f6c3a2063616e206f6e6c792072656e6f756e636560448201527f20726f6c657320666f722073656c66000000000000000000000000000000000060648201526084015b60405180910390fd5b6102c88282610429565b6000828152602081905260409020600101546103748161037e565b61028c8383610429565b61038881336104a8565b50565b6000828152602081815260408083206001600160a01b038516845290915290205460ff166102c8576000828152602081815260408083206001600160a01b03851684529091529020805460ff191660011790556103e53390565b6001600160a01b0316816001600160a01b0316837f2f8788117e7eff1d82e926ec794901d17c78024a50270940304540a733656f0d60405160405180910390a45050565b6000828152602081815260408083206001600160a01b038516845290915290205460ff16156102c8576000828152602081815260408083206001600160a01b0385168085529252808320805460ff1916905551339285917ff6391f5c32d9c69d2a47ea670b442974b53935d1edc7fd64eb21e047a839171b9190a45050565b6000828152602081815260408083206001600160a01b038516845290915290205460ff166102c8576104e4816001600160a01b03166014610526565b6104ef836020610526565b6040516020016105009291906107d5565b60408051601f198184030181529082905262461bcd60e51b825261034691600401610856565b6060600061053583600261089f565b6105409060026108be565b67ffffffffffffffff811115610558576105586108d6565b6040519080825280601f01601f191660200182016040528015610582576020820181803683370190505b5090507f3000000000000000000000000000000000000000000000000000000000000000816000815181106105b9576105b96108ec565b60200101906001600160f81b031916908160001a9053507f780000000000000000000000000000000000000000000000000000000000000081600181518110610604576106046108ec565b60200101906001600160f81b031916908160001a905350600061062884600261089f565b6106339060016108be565b90505b60018111156106b8577f303132333435363738396162636465660000000000000000000000000000000085600f1660108110610674576106746108ec565b1a60f81b82828151811061068a5761068a6108ec565b60200101906001600160f81b031916908160001a90535060049490941c936106b181610902565b9050610636565b5083156107075760405162461bcd60e51b815260206004820181905260248201527f537472696e67733a20686578206c656e67746820696e73756666696369656e746044820152606401610346565b9392505050565b60006020828403121561072057600080fd5b81357fffffffff000000000000000000000000000000000000000000000000000000008116811461070757600080fd5b60006020828403121561076257600080fd5b5035919050565b6000806040838503121561077c57600080fd5b8235915060208301356001600160a01b038116811461079a57600080fd5b809150509250929050565b60005b838110156107c05781810151838201526020016107a8565b838111156107cf576000848401525b50505050565b7f416363657373436f6e74726f6c3a206163636f756e742000000000000000000081526000835161080d8160178501602088016107a5565b7f206973206d697373696e6720726f6c6520000000000000000000000000000000601791840191820152835161084a8160288401602088016107a5565b01602801949350505050565b60208152600082518060208401526108758160408501602087016107a5565b601f01601f19169190910160400192915050565b634e487b7160e01b600052601160045260246000fd5b60008160001904831182151516156108b9576108b9610889565b500290565b600082198211156108d1576108d1610889565b500190565b634e487b7160e01b600052604160045260246000fd5b634e487b7160e01b600052603260045260246000fd5b60008161091157610911610889565b50600019019056fea2646970667358221220ca79fa0f7fbec244a8eeef9eb1b3bd4897e4739e614d0e5bfefc1dbb11639abd64736f6c63430008090033a26469706673582212209982dc4d66dd98910d0ce3585fe04abf0d705ddc6273c313367c9d386dc2f81a64736f6c63430008090033",
  "linkReferences": {},
  "deployedLinkReferences": {}
}