{
  "_format": "hh-sol-artifact-1",
  "contractName": "StakeStarRegistry",
  "sourceName": "contracts/StakeStarRegistry.sol",
  "abi": [
    {
      "anonymous": false,
      "inputs": [
        {
          "indexed": false,
          "internalType": "uint32",
          "name": "operatorId",
          "type": "uint32"
        }
      ],
      "name": "AddOperatorToAllowList",
      "type": "event"
    },
    {
      "anonymous": false,
      "inputs": [
        {
          "indexed": false,
          "internalType": "uint8",
          "name": "version",
          "type": "uint8"
        }
      ],
      "name": "Initialized",
      "type": "event"
    },
    {
      "anonymous": false,
      "inputs": [
        {
          "indexed": false,
          "internalType": "uint32",
          "name": "operatorId",
          "type": "uint32"
        }
      ],
      "name": "RemoveOperatorFromAllowList",
      "type": "event"
    },
    {
      "anonymous": false,
      "inputs": [
        {
          "indexed": true,
          "internalType": "bytes32",
          "name": "role",
          "type": "bytes32"
        },
        {
          "indexed": true,
          "internalType": "bytes32",
          "name": "previousAdminRole",
          "type": "bytes32"
        },
        {
          "indexed": true,
          "internalType": "bytes32",
          "name": "newAdminRole",
          "type": "bytes32"
        }
      ],
      "name": "RoleAdminChanged",
      "type": "event"
    },
    {
      "anonymous": false,
      "inputs": [
        {
          "indexed": true,
          "internalType": "bytes32",
          "name": "role",
          "type": "bytes32"
        },
        {
          "indexed": true,
          "internalType": "address",
          "name": "account",
          "type": "address"
        },
        {
          "indexed": true,
          "internalType": "address",
          "name": "sender",
          "type": "address"
        }
      ],
      "name": "RoleGranted",
      "type": "event"
    },
    {
      "anonymous": false,
      "inputs": [
        {
          "indexed": true,
          "internalType": "bytes32",
          "name": "role",
          "type": "bytes32"
        },
        {
          "indexed": true,
          "internalType": "address",
          "name": "account",
          "type": "address"
        },
        {
          "indexed": true,
          "internalType": "address",
          "name": "sender",
          "type": "address"
        }
      ],
      "name": "RoleRevoked",
      "type": "event"
    },
    {
      "inputs": [],
      "name": "DEFAULT_ADMIN_ROLE",
      "outputs": [
        {
          "internalType": "bytes32",
          "name": "",
          "type": "bytes32"
        }
      ],
      "stateMutability": "view",
      "type": "function"
    },
    {
      "inputs": [
        {
          "internalType": "uint32",
          "name": "operatorId",
          "type": "uint32"
        }
      ],
      "name": "addOperatorToAllowList",
      "outputs": [],
      "stateMutability": "nonpayable",
      "type": "function"
    },
    {
      "inputs": [
        {
          "internalType": "uint32",
          "name": "",
          "type": "uint32"
        }
      ],
      "name": "allowListOfOperators",
      "outputs": [
        {
          "internalType": "bool",
          "name": "",
          "type": "bool"
        }
      ],
      "stateMutability": "view",
      "type": "function"
    },
    {
      "inputs": [
        {
          "internalType": "bytes32",
          "name": "role",
          "type": "bytes32"
        }
      ],
      "name": "getRoleAdmin",
      "outputs": [
        {
          "internalType": "bytes32",
          "name": "",
          "type": "bytes32"
        }
      ],
      "stateMutability": "view",
      "type": "function"
    },
    {
      "inputs": [
        {
          "internalType": "bytes32",
          "name": "role",
          "type": "bytes32"
        },
        {
          "internalType": "address",
          "name": "account",
          "type": "address"
        }
      ],
      "name": "grantRole",
      "outputs": [],
      "stateMutability": "nonpayable",
      "type": "function"
    },
    {
      "inputs": [
        {
          "internalType": "bytes32",
          "name": "role",
          "type": "bytes32"
        },
        {
          "internalType": "address",
          "name": "account",
          "type": "address"
        }
      ],
      "name": "hasRole",
      "outputs": [
        {
          "internalType": "bool",
          "name": "",
          "type": "bool"
        }
      ],
      "stateMutability": "view",
      "type": "function"
    },
    {
      "inputs": [],
      "name": "initialize",
      "outputs": [],
      "stateMutability": "nonpayable",
      "type": "function"
    },
    {
      "inputs": [
        {
          "internalType": "uint32",
          "name": "operatorId",
          "type": "uint32"
        }
      ],
      "name": "isOperatorAllowListed",
      "outputs": [
        {
          "internalType": "bool",
          "name": "",
          "type": "bool"
        }
      ],
      "stateMutability": "view",
      "type": "function"
    },
    {
      "inputs": [
        {
          "internalType": "uint32",
          "name": "operatorId",
          "type": "uint32"
        }
      ],
      "name": "removeOperatorFromAllowList",
      "outputs": [],
      "stateMutability": "nonpayable",
      "type": "function"
    },
    {
      "inputs": [
        {
          "internalType": "bytes32",
          "name": "role",
          "type": "bytes32"
        },
        {
          "internalType": "address",
          "name": "account",
          "type": "address"
        }
      ],
      "name": "renounceRole",
      "outputs": [],
      "stateMutability": "nonpayable",
      "type": "function"
    },
    {
      "inputs": [
        {
          "internalType": "bytes32",
          "name": "role",
          "type": "bytes32"
        },
        {
          "internalType": "address",
          "name": "account",
          "type": "address"
        }
      ],
      "name": "revokeRole",
      "outputs": [],
      "stateMutability": "nonpayable",
      "type": "function"
    },
    {
      "inputs": [
        {
          "internalType": "bytes4",
          "name": "interfaceId",
          "type": "bytes4"
        }
      ],
      "name": "supportsInterface",
      "outputs": [
        {
          "internalType": "bool",
          "name": "",
          "type": "bool"
        }
      ],
      "stateMutability": "view",
      "type": "function"
    }
  ],
  "bytecode": "0x608060405234801561001057600080fd5b50610c54806100206000396000f3fe608060405234801561001057600080fd5b50600436106100d45760003560e01c806381f3666711610081578063c04b76d61161005b578063c04b76d6146101d9578063c6ca8a34146101ec578063d547741f1461021557600080fd5b806381f366671461018557806391d1485414610198578063a217fddf146101d157600080fd5b806336568abe116100b257806336568abe1461014757806346638fd91461015a5780638129fc1c1461017d57600080fd5b806301ffc9a7146100d9578063248a9ca3146101015780632f2ff15d14610132575b600080fd5b6100ec6100e73660046109ed565b610228565b60405190151581526020015b60405180910390f35b61012461010f366004610a2f565b60009081526065602052604090206001015490565b6040519081526020016100f8565b610145610140366004610a48565b6102c1565b005b610145610155366004610a48565b6102eb565b6100ec610168366004610a84565b60976020526000908152604090205460ff1681565b61014561037c565b610145610193366004610a84565b61049f565b6100ec6101a6366004610a48565b60009182526065602090815260408084206001600160a01b0393909316845291905290205460ff1690565b610124600081565b6101456101e7366004610a84565b610569565b6100ec6101fa366004610a84565b63ffffffff1660009081526097602052604090205460ff1690565b610145610223366004610a48565b610627565b60007fffffffff0000000000000000000000000000000000000000000000000000000082167f7965db0b0000000000000000000000000000000000000000000000000000000014806102bb57507f01ffc9a7000000000000000000000000000000000000000000000000000000007fffffffff000000000000000000000000000000000000000000000000000000008316145b92915050565b6000828152606560205260409020600101546102dc8161064c565b6102e68383610656565b505050565b6001600160a01b038116331461036e5760405162461bcd60e51b815260206004820152602f60248201527f416363657373436f6e74726f6c3a2063616e206f6e6c792072656e6f756e636560448201527f20726f6c657320666f722073656c66000000000000000000000000000000000060648201526084015b60405180910390fd5b61037882826106f8565b5050565b600054610100900460ff161580801561039c5750600054600160ff909116105b806103b65750303b1580156103b6575060005460ff166001145b6104285760405162461bcd60e51b815260206004820152602e60248201527f496e697469616c697a61626c653a20636f6e747261637420697320616c72656160448201527f647920696e697469616c697a65640000000000000000000000000000000000006064820152608401610365565b6000805460ff19166001179055801561044b576000805461ff0019166101001790555b61045660003361077b565b801561049c576000805461ff0019169055604051600181527f7f26b83ff96e1f2b6a682f133852f6798a09c465da95921460cefb38474024989060200160405180910390a15b50565b60006104aa8161064c565b63ffffffff821660009081526097602052604090205460ff16156105105760405162461bcd60e51b815260206004820152601360248201527f616c726561647920696e20746865206c697374000000000000000000000000006044820152606401610365565b63ffffffff8216600081815260976020908152604091829020805460ff1916600117905590519182527fdee758107075d001dc0f4a77f130f8b288ad87084e714e2a91fb10c1ed12d8ac91015b60405180910390a15050565b60006105748161064c565b63ffffffff821660009081526097602052604090205460ff166105d95760405162461bcd60e51b815260206004820152600f60248201527f6e6f7420696e20746865206c69737400000000000000000000000000000000006044820152606401610365565b63ffffffff8216600081815260976020908152604091829020805460ff1916905590519182527f13511408d4dda940a69f29d9f4f9eb61cc30be51716ba27d819b74efa2cb23fa910161055d565b6000828152606560205260409020600101546106428161064c565b6102e683836106f8565b61049c8133610785565b60008281526065602090815260408083206001600160a01b038516845290915290205460ff166103785760008281526065602090815260408083206001600160a01b03851684529091529020805460ff191660011790556106b43390565b6001600160a01b0316816001600160a01b0316837f2f8788117e7eff1d82e926ec794901d17c78024a50270940304540a733656f0d60405160405180910390a45050565b60008281526065602090815260408083206001600160a01b038516845290915290205460ff16156103785760008281526065602090815260408083206001600160a01b0385168085529252808320805460ff1916905551339285917ff6391f5c32d9c69d2a47ea670b442974b53935d1edc7fd64eb21e047a839171b9190a45050565b6103788282610656565b60008281526065602090815260408083206001600160a01b038516845290915290205460ff16610378576107c3816001600160a01b03166014610805565b6107ce836020610805565b6040516020016107df929190610ada565b60408051601f198184030181529082905262461bcd60e51b825261036591600401610b5b565b60606000610814836002610ba4565b61081f906002610bc3565b67ffffffffffffffff81111561083757610837610bdb565b6040519080825280601f01601f191660200182016040528015610861576020820181803683370190505b5090507f30000000000000000000000000000000000000000000000000000000000000008160008151811061089857610898610bf1565b60200101906001600160f81b031916908160001a9053507f7800000000000000000000000000000000000000000000000000000000000000816001815181106108e3576108e3610bf1565b60200101906001600160f81b031916908160001a9053506000610907846002610ba4565b610912906001610bc3565b90505b6001811115610997577f303132333435363738396162636465660000000000000000000000000000000085600f166010811061095357610953610bf1565b1a60f81b82828151811061096957610969610bf1565b60200101906001600160f81b031916908160001a90535060049490941c9361099081610c07565b9050610915565b5083156109e65760405162461bcd60e51b815260206004820181905260248201527f537472696e67733a20686578206c656e67746820696e73756666696369656e746044820152606401610365565b9392505050565b6000602082840312156109ff57600080fd5b81357fffffffff00000000000000000000000000000000000000000000000000000000811681146109e657600080fd5b600060208284031215610a4157600080fd5b5035919050565b60008060408385031215610a5b57600080fd5b8235915060208301356001600160a01b0381168114610a7957600080fd5b809150509250929050565b600060208284031215610a9657600080fd5b813563ffffffff811681146109e657600080fd5b60005b83811015610ac5578181015183820152602001610aad565b83811115610ad4576000848401525b50505050565b7f416363657373436f6e74726f6c3a206163636f756e7420000000000000000000815260008351610b12816017850160208801610aaa565b7f206973206d697373696e6720726f6c65200000000000000000000000000000006017918401918201528351610b4f816028840160208801610aaa565b01602801949350505050565b6020815260008251806020840152610b7a816040850160208701610aaa565b601f01601f19169190910160400192915050565b634e487b7160e01b600052601160045260246000fd5b6000816000190483118215151615610bbe57610bbe610b8e565b500290565b60008219821115610bd657610bd6610b8e565b500190565b634e487b7160e01b600052604160045260246000fd5b634e487b7160e01b600052603260045260246000fd5b600081610c1657610c16610b8e565b50600019019056fea2646970667358221220b4b6d642d67035655df9c969e3453b40b7abc6e6e88a46b349f6d1e207378b4a64736f6c63430008090033",
  "linkReferences": {},
  "deployedLinkReferences": {}
}