{
  "_format": "hh-sol-artifact-1",
  "contractName": "StakeStarETH",
  "sourceName": "contracts/StakeStarETH.sol",
  "abi": [
    {
      "inputs": [],
      "stateMutability": "nonpayable",
      "type": "constructor"
    },
    {
      "anonymous": false,
      "inputs": [
        {
          "indexed": true,
          "internalType": "address",
          "name": "owner",
          "type": "address"
        },
        {
          "indexed": true,
          "internalType": "address",
          "name": "spender",
          "type": "address"
        },
        {
          "indexed": false,
          "internalType": "uint256",
          "name": "value",
          "type": "uint256"
        }
      ],
      "name": "Approval",
      "type": "event"
    },
    {
      "anonymous": false,
      "inputs": [
        {
          "indexed": true,
          "internalType": "address",
          "name": "from",
          "type": "address"
        },
        {
          "indexed": false,
          "internalType": "uint256",
          "name": "ssETH",
          "type": "uint256"
        },
        {
          "indexed": false,
          "internalType": "uint256",
          "name": "rate",
          "type": "uint256"
        }
      ],
      "name": "Burn",
      "type": "event"
    },
    {
      "anonymous": false,
      "inputs": [
        {
          "indexed": true,
          "internalType": "address",
          "name": "to",
          "type": "address"
        },
        {
          "indexed": false,
          "internalType": "uint256",
          "name": "ssETH",
          "type": "uint256"
        },
        {
          "indexed": false,
          "internalType": "uint256",
          "name": "rate",
          "type": "uint256"
        }
      ],
      "name": "Mint",
      "type": "event"
    },
    {
      "anonymous": false,
      "inputs": [
        {
          "indexed": true,
          "internalType": "bytes32",
          "name": "role",
          "type": "bytes32"
        },
        {
          "indexed": true,
          "internalType": "bytes32",
          "name": "previousAdminRole",
          "type": "bytes32"
        },
        {
          "indexed": true,
          "internalType": "bytes32",
          "name": "newAdminRole",
          "type": "bytes32"
        }
      ],
      "name": "RoleAdminChanged",
      "type": "event"
    },
    {
      "anonymous": false,
      "inputs": [
        {
          "indexed": true,
          "internalType": "bytes32",
          "name": "role",
          "type": "bytes32"
        },
        {
          "indexed": true,
          "internalType": "address",
          "name": "account",
          "type": "address"
        },
        {
          "indexed": true,
          "internalType": "address",
          "name": "sender",
          "type": "address"
        }
      ],
      "name": "RoleGranted",
      "type": "event"
    },
    {
      "anonymous": false,
      "inputs": [
        {
          "indexed": true,
          "internalType": "bytes32",
          "name": "role",
          "type": "bytes32"
        },
        {
          "indexed": true,
          "internalType": "address",
          "name": "account",
          "type": "address"
        },
        {
          "indexed": true,
          "internalType": "address",
          "name": "sender",
          "type": "address"
        }
      ],
      "name": "RoleRevoked",
      "type": "event"
    },
    {
      "anonymous": false,
      "inputs": [
        {
          "indexed": true,
          "internalType": "address",
          "name": "from",
          "type": "address"
        },
        {
          "indexed": true,
          "internalType": "address",
          "name": "to",
          "type": "address"
        },
        {
          "indexed": false,
          "internalType": "uint256",
          "name": "value",
          "type": "uint256"
        }
      ],
      "name": "Transfer",
      "type": "event"
    },
    {
      "anonymous": false,
      "inputs": [
        {
          "indexed": false,
          "internalType": "uint256",
          "name": "rate",
          "type": "uint256"
        }
      ],
      "name": "UpdateRate",
      "type": "event"
    },
    {
      "inputs": [],
      "name": "DEFAULT_ADMIN_ROLE",
      "outputs": [
        {
          "internalType": "bytes32",
          "name": "",
          "type": "bytes32"
        }
      ],
      "stateMutability": "view",
      "type": "function"
    },
    {
      "inputs": [
        {
          "internalType": "uint256",
          "name": "ETH",
          "type": "uint256"
        }
      ],
      "name": "ETH_to_ssETH",
      "outputs": [
        {
          "internalType": "uint256",
          "name": "",
          "type": "uint256"
        }
      ],
      "stateMutability": "view",
      "type": "function"
    },
    {
      "inputs": [
        {
          "internalType": "address",
          "name": "owner",
          "type": "address"
        },
        {
          "internalType": "address",
          "name": "spender",
          "type": "address"
        }
      ],
      "name": "allowance",
      "outputs": [
        {
          "internalType": "uint256",
          "name": "",
          "type": "uint256"
        }
      ],
      "stateMutability": "view",
      "type": "function"
    },
    {
      "inputs": [
        {
          "internalType": "address",
          "name": "spender",
          "type": "address"
        },
        {
          "internalType": "uint256",
          "name": "amount",
          "type": "uint256"
        }
      ],
      "name": "approve",
      "outputs": [
        {
          "internalType": "bool",
          "name": "",
          "type": "bool"
        }
      ],
      "stateMutability": "nonpayable",
      "type": "function"
    },
    {
      "inputs": [
        {
          "internalType": "address",
          "name": "account",
          "type": "address"
        }
      ],
      "name": "balanceOf",
      "outputs": [
        {
          "internalType": "uint256",
          "name": "",
          "type": "uint256"
        }
      ],
      "stateMutability": "view",
      "type": "function"
    },
    {
      "inputs": [
        {
          "internalType": "address",
          "name": "account",
          "type": "address"
        },
        {
          "internalType": "uint256",
          "name": "ETH",
          "type": "uint256"
        }
      ],
      "name": "burn",
      "outputs": [],
      "stateMutability": "nonpayable",
      "type": "function"
    },
    {
      "inputs": [],
      "name": "decimals",
      "outputs": [
        {
          "internalType": "uint8",
          "name": "",
          "type": "uint8"
        }
      ],
      "stateMutability": "view",
      "type": "function"
    },
    {
      "inputs": [
        {
          "internalType": "address",
          "name": "spender",
          "type": "address"
        },
        {
          "internalType": "uint256",
          "name": "subtractedValue",
          "type": "uint256"
        }
      ],
      "name": "decreaseAllowance",
      "outputs": [
        {
          "internalType": "bool",
          "name": "",
          "type": "bool"
        }
      ],
      "stateMutability": "nonpayable",
      "type": "function"
    },
    {
      "inputs": [
        {
          "internalType": "bytes32",
          "name": "role",
          "type": "bytes32"
        }
      ],
      "name": "getRoleAdmin",
      "outputs": [
        {
          "internalType": "bytes32",
          "name": "",
          "type": "bytes32"
        }
      ],
      "stateMutability": "view",
      "type": "function"
    },
    {
      "inputs": [
        {
          "internalType": "bytes32",
          "name": "role",
          "type": "bytes32"
        },
        {
          "internalType": "address",
          "name": "account",
          "type": "address"
        }
      ],
      "name": "grantRole",
      "outputs": [],
      "stateMutability": "nonpayable",
      "type": "function"
    },
    {
      "inputs": [
        {
          "internalType": "bytes32",
          "name": "role",
          "type": "bytes32"
        },
        {
          "internalType": "address",
          "name": "account",
          "type": "address"
        }
      ],
      "name": "hasRole",
      "outputs": [
        {
          "internalType": "bool",
          "name": "",
          "type": "bool"
        }
      ],
      "stateMutability": "view",
      "type": "function"
    },
    {
      "inputs": [
        {
          "internalType": "address",
          "name": "spender",
          "type": "address"
        },
        {
          "internalType": "uint256",
          "name": "addedValue",
          "type": "uint256"
        }
      ],
      "name": "increaseAllowance",
      "outputs": [
        {
          "internalType": "bool",
          "name": "",
          "type": "bool"
        }
      ],
      "stateMutability": "nonpayable",
      "type": "function"
    },
    {
      "inputs": [
        {
          "internalType": "address",
          "name": "account",
          "type": "address"
        },
        {
          "internalType": "uint256",
          "name": "ETH",
          "type": "uint256"
        }
      ],
      "name": "mint",
      "outputs": [],
      "stateMutability": "nonpayable",
      "type": "function"
    },
    {
      "inputs": [],
      "name": "name",
      "outputs": [
        {
          "internalType": "string",
          "name": "",
          "type": "string"
        }
      ],
      "stateMutability": "view",
      "type": "function"
    },
    {
      "inputs": [],
      "name": "rate",
      "outputs": [
        {
          "internalType": "uint256",
          "name": "",
          "type": "uint256"
        }
      ],
      "stateMutability": "view",
      "type": "function"
    },
    {
      "inputs": [
        {
          "internalType": "bytes32",
          "name": "role",
          "type": "bytes32"
        },
        {
          "internalType": "address",
          "name": "account",
          "type": "address"
        }
      ],
      "name": "renounceRole",
      "outputs": [],
      "stateMutability": "nonpayable",
      "type": "function"
    },
    {
      "inputs": [
        {
          "internalType": "bytes32",
          "name": "role",
          "type": "bytes32"
        },
        {
          "internalType": "address",
          "name": "account",
          "type": "address"
        }
      ],
      "name": "revokeRole",
      "outputs": [],
      "stateMutability": "nonpayable",
      "type": "function"
    },
    {
      "inputs": [
        {
          "internalType": "uint256",
          "name": "ssETH",
          "type": "uint256"
        }
      ],
      "name": "ssETH_to_ETH",
      "outputs": [
        {
          "internalType": "uint256",
          "name": "",
          "type": "uint256"
        }
      ],
      "stateMutability": "view",
      "type": "function"
    },
    {
      "inputs": [
        {
          "internalType": "bytes4",
          "name": "interfaceId",
          "type": "bytes4"
        }
      ],
      "name": "supportsInterface",
      "outputs": [
        {
          "internalType": "bool",
          "name": "",
          "type": "bool"
        }
      ],
      "stateMutability": "view",
      "type": "function"
    },
    {
      "inputs": [],
      "name": "symbol",
      "outputs": [
        {
          "internalType": "string",
          "name": "",
          "type": "string"
        }
      ],
      "stateMutability": "view",
      "type": "function"
    },
    {
      "inputs": [],
      "name": "totalSupply",
      "outputs": [
        {
          "internalType": "uint256",
          "name": "",
          "type": "uint256"
        }
      ],
      "stateMutability": "view",
      "type": "function"
    },
    {
      "inputs": [
        {
          "internalType": "address",
          "name": "to",
          "type": "address"
        },
        {
          "internalType": "uint256",
          "name": "amount",
          "type": "uint256"
        }
      ],
      "name": "transfer",
      "outputs": [
        {
          "internalType": "bool",
          "name": "",
          "type": "bool"
        }
      ],
      "stateMutability": "nonpayable",
      "type": "function"
    },
    {
      "inputs": [
        {
          "internalType": "address",
          "name": "from",
          "type": "address"
        },
        {
          "internalType": "address",
          "name": "to",
          "type": "address"
        },
        {
          "internalType": "uint256",
          "name": "amount",
          "type": "uint256"
        }
      ],
      "name": "transferFrom",
      "outputs": [
        {
          "internalType": "bool",
          "name": "",
          "type": "bool"
        }
      ],
      "stateMutability": "nonpayable",
      "type": "function"
    },
    {
      "inputs": [
        {
          "internalType": "uint256",
          "name": "ETHChange",
          "type": "uint256"
        },
        {
          "internalType": "bool",
          "name": "positiveOrNegative",
          "type": "bool"
        }
      ],
      "name": "updateRate",
      "outputs": [],
      "stateMutability": "nonpayable",
      "type": "function"
    }
  ],
  "bytecode": "0x60806040523480156200001157600080fd5b50604080518082018252600d81526c0a6e8c2d6caa6e8c2e4408aa89609b1b6020808301918252835180850190945260058452640e6e68aa8960db1b9084015281519192916200006491600391620001ba565b5080516200007a906004906020840190620001ba565b50505062000090600180620000a660201b60201c565b600655620000a0600033620000ea565b620002ee565b6000620000e382620000cf670de0b6b3a764000086620000fa60201b620008c11790919060201c565b6200010860201b620008d41790919060201c565b9392505050565b620000f6828262000116565b5050565b6000620000e3828462000260565b6000620000e382846200028e565b60008281526005602090815260408083206001600160a01b038516845290915290205460ff16620000f65760008281526005602090815260408083206001600160a01b03851684529091529020805460ff19166001179055620001763390565b6001600160a01b0316816001600160a01b0316837f2f8788117e7eff1d82e926ec794901d17c78024a50270940304540a733656f0d60405160405180910390a45050565b828054620001c890620002b1565b90600052602060002090601f016020900481019282620001ec576000855562000237565b82601f106200020757805160ff191683800117855562000237565b8280016001018555821562000237579182015b82811115620002375782518255916020019190600101906200021a565b506200024592915062000249565b5090565b5b808211156200024557600081556001016200024a565b60008160001904831182151516156200028957634e487b7160e01b600052601160045260246000fd5b500290565b600082620002ac57634e487b7160e01b600052601260045260246000fd5b500490565b600181811c90821680620002c657607f821691505b60208210811415620002e857634e487b7160e01b600052602260045260246000fd5b50919050565b6116a580620002fe6000396000f3fe608060405234801561001057600080fd5b50600436106101985760003560e01c806340c10f19116100e3578063a457c2d71161008c578063d547741f11610066578063d547741f14610370578063dbdc05e314610383578063dd62ed3e1461039657600080fd5b8063a457c2d714610337578063a9059cbb1461034a578063c467413d1461035d57600080fd5b806395d89b41116100bd57806395d89b41146103145780639dc29fac1461031c578063a217fddf1461032f57600080fd5b806340c10f191461029f57806370a08231146102b257806391d14854146102db57600080fd5b8063248a9ca311610145578063313ce5671161011f578063313ce5671461026a57806336568abe14610279578063395093511461028c57600080fd5b8063248a9ca3146102295780632c4e722e1461024c5780632f2ff15d1461025557600080fd5b8063095ea7b311610176578063095ea7b3146101fb57806318160ddd1461020e57806323b872dd1461021657600080fd5b806301ffc9a71461019d578063031400e1146101c557806306fdde03146101e6575b600080fd5b6101b06101ab366004611308565b6103cf565b60405190151581526020015b60405180910390f35b6101d86101d336600461134a565b610468565b6040519081526020016101bc565b6101ee61048a565b6040516101bc919061138f565b6101b06102093660046113de565b61051c565b6002546101d8565b6101b0610224366004611408565b610534565b6101d861023736600461134a565b60009081526005602052604090206001015490565b6101d860065481565b610268610263366004611444565b610558565b005b604051601281526020016101bc565b610268610287366004611444565b610582565b6101b061029a3660046113de565b610613565b6102686102ad3660046113de565b610652565b6101d86102c0366004611470565b6001600160a01b031660009081526020819052604090205490565b6101b06102e9366004611444565b60009182526005602090815260408084206001600160a01b0393909316845291905290205460ff1690565b6101ee6106c8565b61026861032a3660046113de565b6106d7565b6101d8600081565b6101b06103453660046113de565b61073f565b6101b06103583660046113de565b6107e9565b61026861036b36600461148b565b6107f7565b61026861037e366004611444565b610879565b6101d861039136600461134a565b61089e565b6101d86103a43660046114c0565b6001600160a01b03918216600090815260016020908152604080832093909416825291909152205490565b60007fffffffff0000000000000000000000000000000000000000000000000000000082167f7965db0b00000000000000000000000000000000000000000000000000000000148061046257507f01ffc9a7000000000000000000000000000000000000000000000000000000007fffffffff000000000000000000000000000000000000000000000000000000008316145b92915050565b6006546000906104629061048484670de0b6b3a76400006108c1565b906108d4565b606060038054610499906114ea565b80601f01602080910402602001604051908101604052809291908181526020018280546104c5906114ea565b80156105125780601f106104e757610100808354040283529160200191610512565b820191906000526020600020905b8154815290600101906020018083116104f557829003601f168201915b5050505050905090565b60003361052a8185856108e0565b5060019392505050565b600033610542858285610a38565b61054d858585610aca565b506001949350505050565b60008281526005602052604090206001015461057381610ce1565b61057d8383610cee565b505050565b6001600160a01b03811633146106055760405162461bcd60e51b815260206004820152602f60248201527f416363657373436f6e74726f6c3a2063616e206f6e6c792072656e6f756e636560448201527f20726f6c657320666f722073656c66000000000000000000000000000000000060648201526084015b60405180910390fd5b61060f8282610d90565b5050565b3360008181526001602090815260408083206001600160a01b038716845290915281205490919061052a908290869061064d90879061153b565b6108e0565b600061065d81610ce1565b600061066883610468565b90506106748482610e13565b836001600160a01b03167f4c209b5fc8ad50758f13e2e1088ba56a560dff690a1c6fef26394f4c03821c4f826006546040516106ba929190918252602082015260400190565b60405180910390a250505050565b606060048054610499906114ea565b60006106e281610ce1565b60006106ed83610468565b90506106f98482610ef2565b836001600160a01b03167f49995e5dd6158cf69ad3e9777c46755a1a826a446c6416992167462dad033b2a826006546040516106ba929190918252602082015260400190565b3360008181526001602090815260408083206001600160a01b0387168452909152812054909190838110156107dc5760405162461bcd60e51b815260206004820152602560248201527f45524332303a2064656372656173656420616c6c6f77616e63652062656c6f7760448201527f207a65726f00000000000000000000000000000000000000000000000000000060648201526084016105fc565b61054d82868684036108e0565b60003361052a818585610aca565b600061080281610ce1565b600061081061039160025490565b905061083b83610829576108248286611077565b610833565b6108338286611083565b60025461108f565b60068190556040519081527fc04ab144c3f6fd32b71825eb92c20af3c8b2f2b6680dfaf3645b527f098c245b9060200160405180910390a150505050565b60008281526005602052604090206001015461089481610ce1565b61057d8383610d90565b6000610462670de0b6b3a7640000610484600654856108c190919063ffffffff16565b60006108cd8284611553565b9392505050565b60006108cd8284611572565b6001600160a01b03831661095b5760405162461bcd60e51b8152602060048201526024808201527f45524332303a20617070726f76652066726f6d20746865207a65726f2061646460448201527f726573730000000000000000000000000000000000000000000000000000000060648201526084016105fc565b6001600160a01b0382166109d75760405162461bcd60e51b815260206004820152602260248201527f45524332303a20617070726f766520746f20746865207a65726f20616464726560448201527f737300000000000000000000000000000000000000000000000000000000000060648201526084016105fc565b6001600160a01b0383811660008181526001602090815260408083209487168084529482529182902085905590518481527f8c5be1e5ebec7d5bd14f71427d1e84f3dd0314c0f7b2291e5b200ac8c7c3b925910160405180910390a3505050565b6001600160a01b038381166000908152600160209081526040808320938616835292905220546000198114610ac45781811015610ab75760405162461bcd60e51b815260206004820152601d60248201527f45524332303a20696e73756666696369656e7420616c6c6f77616e636500000060448201526064016105fc565b610ac484848484036108e0565b50505050565b6001600160a01b038316610b465760405162461bcd60e51b815260206004820152602560248201527f45524332303a207472616e736665722066726f6d20746865207a65726f20616460448201527f647265737300000000000000000000000000000000000000000000000000000060648201526084016105fc565b6001600160a01b038216610bc25760405162461bcd60e51b815260206004820152602360248201527f45524332303a207472616e7366657220746f20746865207a65726f206164647260448201527f657373000000000000000000000000000000000000000000000000000000000060648201526084016105fc565b6001600160a01b03831660009081526020819052604090205481811015610c515760405162461bcd60e51b815260206004820152602660248201527f45524332303a207472616e7366657220616d6f756e742065786365656473206260448201527f616c616e6365000000000000000000000000000000000000000000000000000060648201526084016105fc565b6001600160a01b03808516600090815260208190526040808220858503905591851681529081208054849290610c8890849061153b565b92505081905550826001600160a01b0316846001600160a01b03167fddf252ad1be2c89b69c2b068fc378daa952ba7f163c4a11628f55a4df523b3ef84604051610cd491815260200190565b60405180910390a3610ac4565b610ceb81336110a7565b50565b60008281526005602090815260408083206001600160a01b038516845290915290205460ff1661060f5760008281526005602090815260408083206001600160a01b03851684529091529020805460ff19166001179055610d4c3390565b6001600160a01b0316816001600160a01b0316837f2f8788117e7eff1d82e926ec794901d17c78024a50270940304540a733656f0d60405160405180910390a45050565b60008281526005602090815260408083206001600160a01b038516845290915290205460ff161561060f5760008281526005602090815260408083206001600160a01b0385168085529252808320805460ff1916905551339285917ff6391f5c32d9c69d2a47ea670b442974b53935d1edc7fd64eb21e047a839171b9190a45050565b6001600160a01b038216610e695760405162461bcd60e51b815260206004820152601f60248201527f45524332303a206d696e7420746f20746865207a65726f20616464726573730060448201526064016105fc565b8060026000828254610e7b919061153b565b90915550506001600160a01b03821660009081526020819052604081208054839290610ea890849061153b565b90915550506040518181526001600160a01b038316906000907fddf252ad1be2c89b69c2b068fc378daa952ba7f163c4a11628f55a4df523b3ef9060200160405180910390a35050565b6001600160a01b038216610f6e5760405162461bcd60e51b815260206004820152602160248201527f45524332303a206275726e2066726f6d20746865207a65726f2061646472657360448201527f730000000000000000000000000000000000000000000000000000000000000060648201526084016105fc565b6001600160a01b03821660009081526020819052604090205481811015610ffd5760405162461bcd60e51b815260206004820152602260248201527f45524332303a206275726e20616d6f756e7420657863656564732062616c616e60448201527f636500000000000000000000000000000000000000000000000000000000000060648201526084016105fc565b6001600160a01b038316600090815260208190526040812083830390556002805484929061102c908490611594565b90915550506040518281526000906001600160a01b038516907fddf252ad1be2c89b69c2b068fc378daa952ba7f163c4a11628f55a4df523b3ef9060200160405180910390a3505050565b60006108cd8284611594565b60006108cd828461153b565b60006108cd8261048485670de0b6b3a76400006108c1565b60008281526005602090815260408083206001600160a01b038516845290915290205460ff1661060f576110e5816001600160a01b03166014611127565b6110f0836020611127565b6040516020016111019291906115ab565b60408051601f198184030181529082905262461bcd60e51b82526105fc9160040161138f565b60606000611136836002611553565b61114190600261153b565b67ffffffffffffffff8111156111595761115961162c565b6040519080825280601f01601f191660200182016040528015611183576020820181803683370190505b5090507f3000000000000000000000000000000000000000000000000000000000000000816000815181106111ba576111ba611642565b60200101906001600160f81b031916908160001a9053507f78000000000000000000000000000000000000000000000000000000000000008160018151811061120557611205611642565b60200101906001600160f81b031916908160001a9053506000611229846002611553565b61123490600161153b565b90505b60018111156112b9577f303132333435363738396162636465660000000000000000000000000000000085600f166010811061127557611275611642565b1a60f81b82828151811061128b5761128b611642565b60200101906001600160f81b031916908160001a90535060049490941c936112b281611658565b9050611237565b5083156108cd5760405162461bcd60e51b815260206004820181905260248201527f537472696e67733a20686578206c656e67746820696e73756666696369656e7460448201526064016105fc565b60006020828403121561131a57600080fd5b81357fffffffff00000000000000000000000000000000000000000000000000000000811681146108cd57600080fd5b60006020828403121561135c57600080fd5b5035919050565b60005b8381101561137e578181015183820152602001611366565b83811115610ac45750506000910152565b60208152600082518060208401526113ae816040850160208701611363565b601f01601f19169190910160400192915050565b80356001600160a01b03811681146113d957600080fd5b919050565b600080604083850312156113f157600080fd5b6113fa836113c2565b946020939093013593505050565b60008060006060848603121561141d57600080fd5b611426846113c2565b9250611434602085016113c2565b9150604084013590509250925092565b6000806040838503121561145757600080fd5b82359150611467602084016113c2565b90509250929050565b60006020828403121561148257600080fd5b6108cd826113c2565b6000806040838503121561149e57600080fd5b82359150602083013580151581146114b557600080fd5b809150509250929050565b600080604083850312156114d357600080fd5b6114dc836113c2565b9150611467602084016113c2565b600181811c908216806114fe57607f821691505b6020821081141561151f57634e487b7160e01b600052602260045260246000fd5b50919050565b634e487b7160e01b600052601160045260246000fd5b6000821982111561154e5761154e611525565b500190565b600081600019048311821515161561156d5761156d611525565b500290565b60008261158f57634e487b7160e01b600052601260045260246000fd5b500490565b6000828210156115a6576115a6611525565b500390565b7f416363657373436f6e74726f6c3a206163636f756e74200000000000000000008152600083516115e3816017850160208801611363565b7f206973206d697373696e6720726f6c65200000000000000000000000000000006017918401918201528351611620816028840160208801611363565b01602801949350505050565b634e487b7160e01b600052604160045260246000fd5b634e487b7160e01b600052603260045260246000fd5b60008161166757611667611525565b50600019019056fea2646970667358221220e4247f011926e6178b55b97d3f62b48ab02dff019172c2eaa29a913f6214847164736f6c63430008090033",
  "linkReferences": {},
  "deployedLinkReferences": {}
}